:020000041000EA
:1000000000B5324B212058609868022188439860DF
:10001000D860186158612E4B002199600221596106
:100020000121F02299502B49196001219960352056
:1000300000F044F80222904214D00621196600F024
:1000400034F8196E01211966002018661A6600F04E
:100050002CF8196E196E196E052000F02FF8012189
:100060000842F9D1002199601B49196000215960AB
:100070001A491B48016001219960EB211966A021F2
:10008000196600F012F800219960164914480160C1
:100090000121996001BC002800D000471248134993
:1000A000086003C880F30888084703B5996A0420EC
:1000B0000142FBD001200142F8D103BD02B5186610
:1000C0001866FFF7F2FF186E186E02BD00000240BE
:1000D000000000180000070000035F00212200005C
:1000E000F4000018222000A00001001008ED00E03C
:1000F00000000000000000000000000074B24E7A12
:1001000000200420F7010010C3010010C5010010F9
:10011000C1010010C1010010C1010010C101001097
:10012000C1010010C1010010C1010010C701001081
:10013000C1010010C1010010C9010010CB01001065
:10014000CD010010CD010010CD010010CD01001037
:10015000CD010010CD010010CD010010CD01001027
:10016000CD010010CD010010CD010010CD01001017
:10017000CD010010CD010010CD010010CD01001007
:10018000CD010010CD010010CD010010CD010010F7
:10019000CD010010CD010010CD010010CD010010E7
:1001A000CD010010CD010010CD010010CD010010D7
:1001B000CD010010CD010010CD010010CD010010C7
:1001C00000BE00BE00BE00BE00BE00BEEFF3058054
:1001D000103800BEF2EB887198830110C0830110C3
:1001E0003802001090A31AE71E481F49086006C88D
:1001F00081F3088810471D480068002801D019487D
:10020000F3E70DA40ECC002902D000F012F8F9E7B4
:100210001749184A002000E001C19142FCD116495B
:100220008847164988471649884700BEFDE701C937
:1002300001C29A42FBD37047C0830110C000002066
:100240003C2D00203CB001100000042000000420E0
:100250003CB0011000100420001004200000000039
:10026000704700000000000008ED00E0000000D032
:100270003C2D0020B04A0020D5600010050600107B
:1002800095600010F8B5C0460448054B10B5834290
:1002900003D0044B002B00D0984710BD3C2D00200C
:1002A0003C2D00200000000006480749091A8B1069
:1002B000C90FC91810B5491003D0044B002B00D04A
:1002C000984710BD3C2D00203C2D00200000000070
:1002D00010B5074C2378002B09D1FFF7D5FF054B4C
:1002E000002B02D0044800E000BF0123237010BDA2
:1002F000A03600200000000090630110054B10B5EF
:10030000002B03D00449054800E000BFFFF7CCFFF5
:1003100010BDC04600000000A4360020906301100C
:100320000122024B01201A707047C0469D4A0020EE
:10033000F0B5DE4657464E464546E0B5ABB010F048
:100340009BFF002803D1954806F046F8FEE7944944
:10035000012294480DF030F9934E011E307003D005
:10036000924806F0C1F8FEE7914B924D19000A221F
:1003700028009A460DF004FA011E30701AD18E49F9
:1003800028000FF09BF88D4B011E9946186015DB75
:1003900028000EF09FFB011E307016D1514601223D
:1003A00028000DF0EDF9011E307012D0844806F0DF
:1003B0009BF8FEE7824806F097F8FEE7814806F0D2
:1003C00093F828000EF086FBFEE77F4806F08CF8D5
:1003D000FEE751467D4806F087F87D4805F0FCFFB2
:1003E00064277C4C02E0200006F07EF82A003900E9
:1003F00020000EF047FE0028F5D1774805F0ECFF0D
:1004000028000EF067FB011E307003D06E4806F026
:100410006BF8FEE751460A2228000DF0B1F9011EE3
:10042000307003D0664806F05FF8FEE76B4928009D
:100430000FF044F84B46186028000EF04BFB011EED
:10044000307003D0604806F04FF8FEE7644808F0CB
:100450002BFC644811F0BAF9634B0100180006F058
:1004600043F8624BB0469B46614B4E462993614B25
:10047000D9461C00604F614B9B4608F01FFC584555
:10048000FBD14B4601221A705D4B514628001132B8
:100490009B469B6A0DF074F94346187000286AD198
:1004A0002A696B6928000EF051FB226D636D306084
:1004B0003868796826922793A26CE36C249225937E
:1004C000226C636C22922393A36B2193636B209322
:1004D000A26AE36A1E921F933023E35C1C93A26915
:1004E000E3691A921B932023E35C1893A268E368E4
:1004F000169217932269636914921593BA6DFB6D76
:10050000129213933A6D7B6D10921193BA6CFB6C3F
:100510000E920F933A6C7B6C0C920D93BA6BFB6B43
:100520000A920B933A6B7B6B08920993BA6AFB6A47
:10053000069207933A6A7B6A049205933A697B694B
:1005400002920393BA68FB680092019302000B00C9
:10055000280029990EF0B2FF3060002815DB280032
:100560000EF0B8FA43461870002809D14B461870AF
:100570005B469B6A7FE70100114805F0B5FFFEE787
:100580000100114805F0B0FFFEE701000D4805F03D
:10059000ABFF28000EF09EFAFEE7C0469063011004
:1005A000B8630110B03100209E4A0020BC630110E6
:1005B00090220020502F00200C640110144A0020CB
:1005C000E8630110146401103C64011060640110C0
:1005D0007C64011034430020846401108C64011099
:1005E0009F86010000C0034058650110A34A002007
:1005F0006C650110702D002020340020393000007F
:1006000000400540F0B5DE46574645464E460023BD
:100610000022E0B5A1B001211C921D931E921F93F0
:10062000F448012201F08EFFF34805F05DFF05F06C
:1006300083FEF24B802518009A4600F0EBFBF04B4E
:10064000F04C19002000F04A0A9300F0DDFCEF4B5B
:10065000ED4A190020000B9300F0D6FC032108207E
:1006600001F074FC0321092001F070FC03210E202D
:1006700001F06CFC03210F2001F068FC0022012135
:10068000082001F07DFC00220121092001F078FC06
:10069000002201210E2001F073FC002201210F2015
:1006A00001F06EFCFA20D024400002F023FBD84871
:1006B00005F092FE24061920AD0401F087FCD54810
:1006C000656205F089FED44B06931B78002B00D1A0
:1006D00074E36561FA20400002F00CFB0B9ACF4BEB
:1006E0009346110018000F9301F090F9CC4805F0E3
:1006F00073FE642002F0FEFACA4B59461800994670
:10070000109300F0F1FFC84805F066FE642002F087
:10071000F1FAC64805F060FEC54A0A991000119228
:1007200001F016FBC34805F057FE642002F0E2FA20
:10073000C14805F051FE642002F0DCFA0821BF48F0
:1007400005F0D2FE0821BE4805F0CEFE6021BD486E
:1007500005F0CAFE002464220025904626002F00E2
:1007600059461CAB1EAA484601F014F81C9A1D9B62
:100770003000390003F00CFB1E9A1F9B06000F008F
:100780002000290003F004FB01235B429C46E04467
:10079000434604000D00002BE2D100223000390056
:1007A000A94B03F0FEFA00221C901D91A64B2000DD
:1007B000290003F0F6FA0B000200A4481E921F93D2
:1007C00005F092FE1C9A1D9BA14805F08DFE0123A9
:1007D0009622A049920100939F48073300F03CFD08
:1007E00004009E4802F086FA21009D4A9D4805F0CB
:1007F0007BFE02F011F99C4B9C4A02934346019305
:100800009B4B9C4E0093002302F000FB012002F062
:1008100039FE0400984D994F280005F0DDFD2100B8
:10082000974805F061FE280005F0D6FD954808F0D0
:1008300095FA08F043FA9448944905F055FE0023D0
:100840009946934B9B46934B04930023984640460E
:1008500003F03CFB904A914B03F0C1FA0022904B0D
:1008600003F096FA8F4A904B04000092019302968F
:10087000039702000B0050460D0000F057FB0200EA
:100880000B005046494600F063FB4946584605F0C8
:100890002BFE2B002200049805F026FE322002F0E9
:1008A00029FA01239C46E0444346142BCFD140460D
:1008B00003F00CFB784A794B03F091FA0022784B55
:1008C00003F066FA774A784B04000092019302968F
:1008D000039702000B0050460D0000F027FB0200BA
:1008E0000B005046494600F033FB4946584605F098
:1008F000FBFD2B002200049805F0F6FD322002F0EB
:10090000F9F94346013B9846D1D2FA20400002F063
:10091000F1F901239C46E1444B46042B95D1634CED
:10092000200010F095FF002800D049E2604C200024
:1009300010F08EFF002800D048E25E4A5E4B059220
:100940005E4A049318925E4A5E4B93465E4A0C924E
:100950005E4A19925E4A91465E4A0D925E4A904600
:100960005E4A12925E4A13925E4A14925E4A159251
:100970005E4A16925E4A0E924A469946534607923E
:100980001793D024002601254F462406049B1B788C
:10099000002B00D06AE13B78B9463A00002B03D126
:1009A0001378002BFCD09146524B5C469A6A9B6AA6
:1009B00002F0D2FA5B465A460B9D1860596020320D
:1009C00029002833109800F0E5FE59465B465A4648
:1009D0000F9E40313833303200913000290001F051
:1009E0000FF95B465A4658342900503348323000DC
:1009F000009481E0FC3A0020C86501104C480020BA
:100A00006026002018480020801A06005826002082
:100A1000D0650110D865011099220020C839002046
:100A2000E4650110D83A0020F46501100466011055
:100A3000D43A0020086601101866011024660110DF
:100A400034660110446601100000594054660110DC
:100A50006C66011000400340744A0020B80B00008F
:100A6000E02E00008866011088360020A086010074
:100A70002103001066666666B46601106666EE3F86
:100A8000BC66011031030010D06601109F86010082
:100A9000DC660110EC6601107B14AE47E17A843FFE
:100AA0000000E03F9A9999999999E13FE03A002036
:100AB000DC3A002050480020A54A0020702D00207C
:100AC000203400209D4A002098220020904A0020D7
:100AD00068220020482F002070220020F8660110B4
:100AE0002C670110646701107C6701108C6701108E
:100AF000C06701100040054001F0D6F859465B463A
:100B00005A4618310833009111980A99103201F0B1
:100B1000A1F90C9B1B78002B00D049E10026AE4FB9
:100B2000079B1E605F605B469C6ADD6A1C9A1D9B8A
:100B30002000290003F023F90022A84B03F031F92B
:100B40000022A74B03F04BF922002B0008900991DB
:100B50003000390003F013F90D9BA24A1860596068
:100B6000A14B03F03CF90022A04B04000D0003F060
:100B700081F9002800D018E10022200029009C4BB8
:100B800003F08EF9002801D00024994D434622003D
:100B90001C605D601C615D6112982B0000940195E2
:100BA00005F0A2FC434641469A68DB688869C9693A
:100BB00000900191139805F097FC179B474600267B
:100BC0009A468C4C8C4D386879680022884B03F02B
:100BD000DFF80022804B03F002F902000B00874887
:100BE00087490CC70090019102940395504600F08C
:100BF0009DF902000B0050463100013600F0A8F9C3
:100C0000042EE0D107990022086849687D4B03F063
:100C1000E6F802000B00149805F066FC08980999A4
:100C20000022784B03F0DBF802000B00159805F06A
:100C30005BFC434641461A685B6808694969009055
:100C40000191169805F050FC434641469A68DB68CE
:100C50008869C969009001910E9805F045FC6A48C1
:100C600008F022F800234A4613708AE6049B069A8D
:100C70001E7013786B40DBB21370002B0CD08023F6
:100C80009B046361059B9B78472B0CD03B78002B22
:100C900000D17BE6B94687E680239B04A361059BD0
:100CA0009B78472BF2D1059BDB78472BEED1059B38
:100CB0001B79412BEAD105980F3011F065FE189B86
:100CC0001861596105981E3011F05EFE00224D4BEF
:100CD00003F067F81A901B9103F010F903F0F6F88F
:100CE00002000B001A981B990892099303F047F829
:100CF0000022464B03F055F8089A099B03F048F888
:100D0000189B9861D9612D2305991898CA5C0D3BF1
:100D1000C25408003C3011F037FE189B0022986244
:100D2000D962384B03F03DF81A901B9103F0E6F8B6
:100D300003F0CCF802000B001A981B990892099353
:100D400003F01DF80022314B03F02BF8089A099BA1
:100D500003F01EF8189B9861D9614B2305991898E8
:100D6000CA5C1B3BC25408005A3013F0FFFF189BAB
:100D700058630598693013F0F9FF189B986305983C
:100D8000783011F001FE189B18645964059887307B
:100D900011F0FAFD189B9864D9640598A53011F0FC
:100DA000F3FD189B1865596570E700240F4DEDE6BB
:100DB000199800F05DFC06000F00B1E6A56189E41A
:100DC000134B20009B6A10F05FFDAFE5104B200035
:100DD0009B6A10F059FDB0E50000E03F00A88F408D
:100DE000000024407B14AE47E17A843F0000F0BF4E
:100DF0000000F03F666666666666EE3F9A999999CE
:100E00009999E13F000059403930000000004E4000
:100E10000040054070B50421022001F097F804213C
:100E2000032001F093F80421062001F08FF804213B
:100E3000072001F08BF80021A022334E0024A025CA
:100E40003248324BB060F16032617361306271627E
:100E5000B262F362A0200022012134607560B461A7
:100E6000F5612B4B294C5A61DA611A625C62986118
:100E700059615A61DA611A625C6298615961DA6398
:100E80005A649A64DC641864D963DA635A649A64B5
:100E9000204ADC641864D96311681F4B1F4C4B4017
:100EA0001B041B0C23607069156803F00BF800220B
:100EB0001B4B02F094FF03F045F800046840000C5F
:100EC00000042060306A02F0FDFF0022144B02F0A3
:100ED00086FF03F037F8134D2C6860400004124C75
:100EE000000C2060F06A02F0EDFF00220C4B02F0D3
:100EF00076FF03F027F82D6800046840000C00041A
:100F00002060002070BDC046402D0020A861000078
:100F100000000540200005403E490000201005402B
:100F20000000E83F480005404810054070B50698AD
:100F300007991D001400049A059B02F020FF2B0066
:100F4000220002F04CFF049A059B02F021FF70BDC5
:100F5000F8B514001D000F00002220002900244BCA
:100F600002F09EFF0126002807D100220023200066
:100F7000290002F07FFF002801D03000F8BD1D4B92
:100F8000BA00D6587A001C4BD21992009B18986868
:100F900002F098FF2B00220002F021FF02F0D2FFA6
:100FA000730880B21F2E16D903221A40083293000C
:100FB0009B18124A9B0094466344F60715D5104AC5
:100FC00000041968002641400A40802149018C46EE
:100FD00063441A60D1E707221A4093009B18074A1E
:100FE0009B0094466344F607E9D4064AE9E7C04605
:100FF0000000F03FD06D0110402D00200C00054096
:101000000000FFFFFFFF000010B5080011001400F2
:1010100007F0E4FF001B431E9841404210BDC0464C
:10102000080011000F2200B585B06A441370002338
:101030000093069B07F0FAFF002005B000BDC046F4
:1010400010B584B06C46237300230800110006AA73
:1010500012786273009303AA023307F0E7FF0020BF
:1010600004B010BDF0B5C64600B582B002AF1600A0
:10107000FA690D001400511C884669460834E408DA
:10108000E400091B8D4602AC2370002A04D009201D
:10109000B969684403F004FC002331002800009380
:1010A0002200434607F0C2FFBD46002080BCB84680
:1010B000F0BDC04630B515000F2285B06A440C0063
:1010C0001370012329000093200007F0AFFF0023D5
:1010D000290000932000099B089A07F0B1FF002027
:1010E00005B030BDF0B54E46DE46574645460023B6
:1010F000E0B5524999468B6985B0DB0667D4504B01
:101100001026187801934F4B1D7800934E4B9B4649
:101110001C7800239A468B691E42FCD10A68D2B221
:10112000002836D0242A6CD02C2A62D00A2A5AD021
:10113000464B2901491B5B181A55002307009C46A2
:1011400098460134E4B210213C4B9E690E4200D017
:1011500070E03E4A0292524603929A691142FCD1D3
:101160001A68D2B2242A54D02C2A5DD00A2A58D028
:10117000029F2E01BA460700761B564432550134B1
:10118000E4B29E693142E8D0039B9A460300404690
:1011900008E0242A24D000238F693E421ED000217B
:1011A00000278C462A490A70002F01D05A46147035
:1011B0006246002A01D0009A1570002802D04946E4
:1011C000244A11705246002A01D0019A137005B0CA
:1011D000F0BCBB46B246A946A046F0BD18009AE74F
:1011E00001239A46D8E700238046814600279C4683
:1011F000A9E7002301350700844600249846EDB294
:10120000A1E7002307008446804600240025994674
:1012100099E7002607008446804600240025B14651
:10122000AFE780468146ACE70135070084460024DD
:10123000EDB2A6E703004046B4E7C04600400340D5
:10124000A84A0020A64A0020A74A002050480020B3
:10125000AB4A0020A54A0020F0B54E464546DE4682
:101260005746E0B51500C84A0C001E0095B09142E3
:1012700000D1BEE1C54B994200D0B5E12900200064
:1012800001F0B8FE0221042000F060FE02210520DA
:1012900000F05CFE2900200001F03CFFC022236B1F
:1012A00012021340BA4A31001360200000231E9A34
:1012B00001F08AFF2000002101F0C2FF152001216A
:1012C00000F070FF5023A363626B183B1340B14AD8
:1012D00008AEA21813603200AF4B23CB23C223CB3E
:1012E00023C223CB23C203CB03C21B881380AB4B87
:1012F000E3185A4253415B009846A94A13009146AD
:1013000042469B5E242B00D167E12022A3691A424A
:10131000FCD1242324204D27236005F011F820253B
:101320006F443078A3691D42FCD12060013605F07E
:1013300007F8BE42F5D12022A3691A42FCD12A2324
:101340002A20236004F0FCFF2022A3691A42FCD16A
:1013500032233220236004F0F3FF2022A3691A42D3
:10136000FCD139233920236004F0EAFF8D4B0D2195
:101370009A461800002220230D25002A00D0E1E023
:101380004A464646925F8A4200D1E3E0A269134290
:10139000FCD121600D394A4251410130CAB2017875
:1013A0000029EAD1804B01AE18009B4605F014F8E5
:1013B000FA20400001F09EFC32007C4B23CB23C27C
:1013C0004B4642469B5E242B00D1FFE02022A369BE
:1013D0001A42FCD1242324200F27236004F0B0FFFD
:1013E00020256F443078A3691D42FCD1206001366E
:1013F00004F0A6FFBE42F5D12022A3691A42FCD117
:101400002A232A20236004F09BFF2022A3691A428A
:10141000FCD132233220236004F092FF2022A36902
:101420001A42FCD143234320236004F089FF0D2599
:101430005146002220230D20002A00D08FE04A468A
:101440004646925FAA4200D191E0A2691342FCD1C4
:101450002A000D3A256055426A414D780131D2B2D9
:10146000002DE9D1584604F0B7FFFA2004AE400041
:1014700001F040FC32004E4B23CB23C21B8813806B
:101480004B4642469B5E242B00D198E02022A36964
:101490001A42FCD1242324201D27236004F050FF8E
:1014A00020256F443078A3691D42FCD120600136AD
:1014B00004F046FFBE42F5D12022A3691A42FCD1B6
:1014C0002A232A20236004F03BFF2022A3691A422A
:1014D000FCD132233220236004F032FF2022A369A2
:1014E0001A42FCD137233720236004F029FF5746E6
:1014F0000D21002220230D20002A3DD14A464546D9
:10150000525F8A4256D0A2691342FCD121600D3944
:101510004A4251410137CAB239780029ECD15846C4
:1015200004F05AFFFA20400001F0E4FB962120006D
:10153000090201F0EFFD15B0F0BCBB46B246A9466A
:10154000A046F0BDA269134200D122E7A26913426E
:10155000F8D11EE7A2691342FCD1256016E7A26903
:10156000134200D174E7A2691342F8D170E7A2696F
:101570001342FCD1206068E7A2691342C6D0A26979
:101580001342F9D1C2E7C046004003400080034047
:1015900030900340341000000C6801100080FCBF44
:1015A000784A00205C640110AC6C01103C680110AA
:1015B00048680110A2691342FCD12060A3E72022F1
:1015C000A3691A42FCD10D2323605FE72022A3699F
:1015D0001A42FCD10D232360F8E62022A3691A42A7
:1015E000FCD10D23236090E6154804F07DFF012017
:1015F000A1E72900200001F0FDFC0221002000F0FD
:10160000A5FC0221012000F0A1FC2900200001F02E
:1016100081FDC022236B120213400A4A310013607D
:10162000200000231E9A01F0CFFD0021200001F0D0
:1016300007FE1420044900F0F1FD14203FE6C046E7
:10164000F867011030500340E5100010064B0749C1
:101650001A0008321A600868986009791171052229
:101660005A6000225A737047E43A0020586801100B
:10167000F0B5194C194F1A4D1A4E83B0002006F0E0
:101680001FFB002816D06B4601220020D91D06F052
:1016900023FB00281CD06B46DA79238832700A2A93
:1016A0000DD023880020EA540133238006F008FB84
:1016B0000028E8D120803868796803B0F0BD0022A6
:1016C00000212800EA5412F0EDF838607960D5E77F
:1016D000FF22044B1A70E4E7964A00208034002071
:1016E000204A0020AA4A0020F0B5D6464F4646467A
:1016F00001240023C0B50E0084B0234F03AD762231
:101700002B8038001E330094FFF78AFC642001F020
:10171000F1FA1E230094762231003800FFF780FC96
:101720001A4B9F349A461A4B9946022398464246D2
:10173000E3B231000192380076220095FFF7BAFC3F
:1017400053462888210040BA82B2185313004846F5
:10175000023404F0C9FEAE2CE9D1AD3C31004A237D
:10176000762238000094FFF75BFC5A237622310082
:1017700038000094FFF754FC002004B0E0BCBA46E7
:10178000B146A846F0BDC04624480020F8420020DB
:1017900060680110F0B5DE4657464E464546E0B556
:1017A00001279946904B8DB093461A880BAC228046
:1017B0008E4E9B787622A37030004A2300970D004E
:1017C000FFF72EFC142001F095FA03239846290018
:1017D00076223000019300940023FFF76BFC6278BF
:1017E000237812021B041343A2782900134330000C
:1017F0007622079300975A23FFF712FC142001F07A
:1018000079FA424629000023300001920094733295
:10181000FFF750FC6278237812021B041343A2786E
:10182000FA241343724A002592465289E4001202B8
:101830009A1A9046524641469289CB12120B534354
:101840001E00DF17A4197D4152460894099510899E
:10185000484302F03BFB674B002202F0C0FA5246BD
:10186000040090880D0002F031FB82230022DB058A
:1018700002F0B5FA0B0002002900200002F088FAFD
:1018800002F078FB524602900391D08842465043C2
:1018900002F01CFBFE2300229B0502F0A0FA524638
:1018A000040050880D0002F011FB0022524B02F0A0
:1018B00096FA02000B002000290002F069FA02F0FB
:1018C00059FB079B0490DB170591089809999A46E4
:1018D00002F044FB0022494B04000D0002F0CAFA5A
:1018E000002849D032003B003000390002F0FEFEF3
:1018F00043465B4306009800C0184000C0180F0024
:1019000002F0E4FAF72300229B0502F068FA02F0E5
:10191000F5FA0200C31708980999801A994102F054
:101920001DFBB30E0D00B90119430400B001801B6B
:10193000B94102F013FB0022314B02F050FA02F0E1
:1019400019FB049A059B121A8B41790104920593A5
:10195000F30E19437001801BB94102F0FFFAFF2317
:1019600000229B0502F03BFA02F004FB029A039B63
:10197000121A8B4102920393002220002900214B6E
:1019800002F00FFA5B4618605960049A059B0798AD
:10199000514602F0ABFE02F0E1FA00221A4B02F0CF
:1019A0001EFA04000D000298039902F0D7FA020013
:1019B0000B002000290002F0E2F9FC2300229B0525
:1019C00002F00DFA00220F4B02F0EBF94B461860C3
:1019D00059600A2004F0B4FC00200DB0F0BCBB46F6
:1019E000B246A946A046F0BD706801102448002008
:1019F000984300200000903F0000F04000409F40CE
:101A00000000A03F000059400000A03EF0B5C646CF
:101A10000F24002300B584B06C446B4E2370013357
:101A2000282201933000002300940D00FFF742FBB1
:101A30002178664804F058FD2378A02B00D1A6E059
:101A400014230B27984601232822019329003000F4
:101A50000094FFF72FFB21785D4804F045FD2378C3
:101A6000FB2B00D0474601232822290001939846EA
:101A7000300001330094FFF71DFB2178554804F036
:101A800033FD2378322B00D185E0434629000193B2
:101A90002822032330000094FFF70CFB21784E48E6
:101AA00004F022FD4D4804F097FC4D4801F022F966
:101AB0000A2004F045FC4B4804F08EFC002301276B
:101AC000984629000093282230003E33FFF7B8FAE9
:101AD0003E2328222900300001970094FFF7EAFAFC
:101AE0002178414804F000FD434629002822009354
:101AF00030003D33FFF7A4FA142001F0FBF83D233A
:101B000028222900300001970094FFF7D3FA2178AA
:101B1000364804F0E9FC0C23290028220093300009
:101B20003133FFF78DFA0A2001F0E4F83D23282233
:101B30002900300001970094FFF7BCFA21782C4867
:101B400004F0D2FC3B2328222900300001970094A6
:101B5000FFF7B0FA2178274804F0C6FC802329005B
:101B6000009328223000453BFFF76AFA3B232822E6
:101B70002900300001970094FFF79CFA21781E4855
:101B800004F0B2FC002004B080BCB846F0BD953B28
:101B90000227984657E74346282229000193300040
:101BA00002330094FFF786FA21780B4804F09CFC7E
:101BB00023780F2B00D075E7022F00D072E70F4873
:101BC00004F00AFC74E7C0461C4800207468011049
:101BD0008C680110B0680110D0680110F068011025
:101BE00010270000086901104069011060690110A8
:101BF0008C690110B4690110E0690110FC680110E2
:101C0000F0B5DE4657464E464546E0B585B002AFD4
:101C10000E0093460021062238009A4602F03AFE52
:101C20001F4B3D00994601230824984643460193E3
:101C3000230001340095282231004846E4B2FFF722
:101C400039FA01350E2CF1D10023F85E02F03EF98D
:101C50000223FD5E00220423FC5E124B02F0A1F879
:101C60005B4618605960280002F030F900220D4BE5
:101C700002F097F8534618605960200002F026F9E8
:101C80000022084B02F08DF80E9B1860596000206E
:101C900005B0F0BCBB46B246A946A046F0BDC04662
:101CA0001C48002000005940F0B5DE4657464E461D
:101CB0004546E0B585B002AF0E00934600210622EE
:101CC00038009A4602F0E6FD1F4B3D00994601237D
:101CD0000E249846434601932300013400952822A0
:101CE00031004846E4B2FFF7E5F90135142CF1D193
:101CF0000023F85E02F0EAF80223FD5E00220423CE
:101D0000FC5E124B02F06BF85B46186059602800CD
:101D100002F0DCF800220D4B02F061F85346186027
:101D20005960200002F0D2F80022084B02F057F868
:101D30000E9B18605960002005B0F0BCBB46B2464F
:101D4000A946A046F0BDC0461C4800200000B03F98
:101D5000F0B5C6460223002500B584B002AC03AF3F
:101D6000FF3364200E0023803D8000F0C3FF334822
:101D700004F032FB02233D80314D9846310001933F
:101D80004022002328000097FFF76CF9FE23DB00B8
:101D90003B80434631000193402228000097013BDD
:101DA000FFF760F9434631000193402200232800E9
:101DB0000094FFF77FF9238862785BBA21789BB2A1
:101DC000204804F091FB4346310001934022280053
:101DD0000094013BFFF76EF9238862785BBA2178A3
:101DE0009BB2194804F080FB642000F083FF434657
:101DF000310001934022280000943C33FFF75AF948
:101E0000238862785BBA21789BB2104804F06CFB9F
:101E10004346310001934022280000943D33FFF7F0
:101E200049F9238862785BBA21789BB2084804F0AC
:101E30005BFB002004B080BCB846F0BD0466011016
:101E400020480020146A0110386A0110606A0110ED
:101E5000846A0110F0B5D6464F464646994603239C
:101E6000C0B584B003AD0F009046002103222800C6
:101E70009A4602F00FFD002302AC23805346224E07
:101E8000402239000193300000950233FFF712F928
:101E90006B7828781B0200041843AB7818430011B4
:101EA00002F014F80022194B01F099FF4B4618601C
:101EB00059605346402239000193300000950433A5
:101EC000FFF7F8F86B7828781B0200041843AB780A
:101ED0001843001101F0FAFF00220D4B01F07FFFC3
:101EE00043461860596002234022019339003000B4
:101EF00000940933FFF7DEF8002004B0E0BCBA46D6
:101F0000B146A846F0BDC04620480020006A68409F
:101F10000088634001207047012805D8AE239B004C
:101F20005843024BC01870470020FCE7A022002055
:101F300001207047012805D803011818024B8000C2
:101F4000C01870470020FCE758250020094A83008C
:101F50009A1810B514684022544080322240064C32
:101F6000C000A44663441A60044B9C466044416030
:101F700010BDC04604C0014004D0014000400140F3
:101F8000074B8000C3181B68C90092000A435A40DF
:101F90000C231340034A9446604403607047C046D4
:101FA00004C0014004D00140064B8000C3181B68E8
:101FB000054A090159409446302360440B400360B0
:101FC0007047C04604C0014004D001400123D02224
:101FD0008340120693629361094A83009A1811683C
:101FE0004022514080320A400649C0008C4663447A
:101FF0001A60054B9C460523604443607047C04609
:1020000004C0014004D00140004001408023DB05B2
:102010001868000F7047C0460FB400B5084883B079
:1020200004F0DAF9049B002B07D005A918000191F0
:1020300003F0F6FF034804F0CFF9012004F008F89C
:10204000A86A01100864011070B5EFF3108C72B625
:102050000D4D2B68002BFCD0BFF35F8F0724CB08FE
:10206000C618C05C01230C40A3401C00044003427E
:1020700007D118433070BFF35F8F2C608CF310884A
:1020800070BD1000FFF7C8FF2C0100D0F8B547461F
:10209000CE46884680B5EFF3108C72B6214D2C6881
:1020A000002CFCD0BFF35F8F9A422CD8D4080727AE
:1020B000055D061901241740BC402C421FD00721A2
:1020C0000127894609E0D408055D06194C46390008
:1020D0001440A1400C00294211D001329342F2D2A7
:1020E00001204042BFF35F8F00220E4B1A608CF339
:1020F000108800280FDBC0BCB946B046F8BD2543A8
:1021000010003570EEE7BFF35F8F00232B608CF378
:102110001088012040424346002BECD00898FFF77E
:102120007BFFC0462C0100D0044A1078431CDBB270
:10213000172B00D9102313707047C0469C25002030
:1021400010B5064B064C82B00100009318221F23E5
:102150002000FFF79BFF02B010BDC046B86A011017
:10216000B04300200021044B044ABFF35F8F02C339
:102170009342FAD17047C046000100D0800100D0E0
:10218000054B064A1360064A136053609360D360A0
:1021900013615361936170478080808000E400E0A8
:1021A00004E400E01F2318401E3B8340002905D0B3
:1021B000C021044A490053501360704780220149EE
:1021C0008B50FAE700E100E001228240034B1B68DC
:1021D00013405A1E9341D8B27047C04600E100E058
:1021E00001238340014A13607047C04600E200E0CB
:1021F000084B10309B688000C358002B07D0064A5C
:1022000000209B1A2F229A424041C0B27047002002
:10221000FCE7C04600ED00E0A025002070B50D00F1
:10222000EFF3108672B60F4A1368002BFCD0BFF391
:102230005F8F0D4B10309B6884001B590B4A9342F3
:1022400003D09D4201D001F045FA074B9B681D5118
:10225000BFF35F8FBFF35F8F0022024B1A6086F3DC
:10226000108870BD240100D000ED00E0CD01001009
:10227000F0B557464E46DE464546E0B585B0060009
:1022800000911700EFF3108B72B66A4A1368002BA7
:10229000FCD0BFF35F8F0025674B5D579A46002D3A
:1022A00000DAA9E06B00654C01935B199B0098462E
:1022B000A146C1444B4652469B7910361370604B81
:1022C000B6009B6899590B1B2F2B33D95D4B994254
:1022D00000D0ACE0019B42469C465B4B6544AD00A0
:1022E00063535A4B0232A218043B9B1A1B05584AEF
:1022F0005B0D651913436B80564B0121AB80FF23A7
:10230000AB71009BEF71AB604B460B4319004C4B1C
:102310009B689951BFF35F8FBFF35F8F0022454BDE
:102320001A608BF3108805B0F0BCBB46B246A946D4
:10233000A046F0BD01200A008243D3798C46BB42FF
:1023400031D84546130044491B1B5B415943090DD5
:102350003D4B63533D4B02356519043B5B1B1B052D
:102360003B4D5B0D2B43AA464D466B800425AC4686
:102370005546E044131F44441B1B1B055B0D1D43C6
:102380004B46997100999D8099604946DF71334BA6
:1023900001431360BBE75800C01880002018C179C2
:1023A000B9422FD902000623D356002BF3DA029349
:1023B0002B4B61460393131D9A4604235B429C46B4
:1023C000E14450464B461B1A1B055B0D9C46204BB7
:1023D000957198466346404603439380019B5A1982
:1023E0009200039BA418A380029B1C4AA371009B2C
:1023F0002260E771A3608AE701F06CF9002553467B
:102400005D574FE7908802934005131D9A460315C8
:1024100061469C464046D444634604302018181A4E
:10242000E0230005400D1B0218430390C5E701F0AF
:1024300051F94FE7240100D0A14A0020A025002037
:1024400000ED00E0CD01001000A1FFFFD02500202D
:1024500000E0FFFF01BDFFFFAAAA0000014880477E
:1024600001BD000070B501240443EFF30581EFF3D3
:10247000108C72B6214A1368002BFCD0BFF35F8F1B
:102480001F4B05001F4AED1A6D416A43120D1E4D88
:102490008900AE6852B27658A6421CD00621595621
:1024A00091421CD012215956914222D01E215956D8
:1024B000914220D02A2159560324914210D0134B27
:1024C00019781A708171BFF35F8F00220B4B1A606D
:1024D0008CF3108870BDAB680D4C5C50EFE70024A6
:1024E0006100091989005B18FF21997109499980D8
:1024F000E5E70124F4E70224F2E7C046240100D016
:10250000A0250020AAAA000000ED00E0A14A0020BA
:10251000CD01001001BDFFFF10B5084B084C82B083
:1025200001000093002205232000FFF7AFFD0028E3
:1025300001DB1F23181A02B010BDC046D46A011077
:10254000AC4A002070B504000E001500FFF7ECFD4A
:102550000100200000F006F8A680E580BFF35F8F41
:1025600070BDC046024B9C466144890001607047C3
:102570004000003470B5114C114DAC420FD2FF2613
:102580002368002B0CD0FFF7CFFD01002000FFF7E0
:10259000E9FFA680BFF35F8F0834AC42F0D370BD73
:1025A000FFF7C2FD01002000FFF7DCFF2671BFF33B
:1025B0005F8F0834AC42E3D3F1E7C0461C2D002006
:1025C0003C2D002010B50400FFF7AEFD01002000F7
:1025D000FFF7C8FFFF232371BFF35F8F10BDC04615
:1025E00010B504000120FFF7ABFD034BC3189B009F
:1025F0002360BFF35F8F10BD40000034034B9C4647
:10260000614489000160BFF35F8F70474000003470
:102610000A4B1968EFF3108072B60A68002AFCD0E2
:10262000BFF35F8F1B68BFF35F8F00221A6080F3D8
:10263000108840BF002000217047C046644A002037
:10264000F0B5DE4657464E464546E0B583B0EFF35B
:10265000058203231340B54A9900525800919046D1
:1026600001229A40B24B93461A60B24B01932EE07E
:1026700043469B881BB2002B00DB99E043469B79C5
:10268000002B00D0DDE0434608241C5F002C00DA5C
:1026900006E143465A6963001B19DB00D3189D68A5
:1026A000DC686B1C00D107E1A34B00999C46614498
:1026B0009A6A0B69A81A9B1A984200D20D619E482B
:1026C00000F042FC8C4200DDEAE000D126E15B46EE
:1026D00099484363434608229B5E9946002BC7DB1B
:1026E000424652695B0092464B44DB009A44534693
:1026F0009E68DF6800F028FC8F42B9DC00D100E161
:10270000002F00DAE1E05246534654691B69019AF2
:10271000934200D1D4E0414652460820085E5288D8
:10272000000421001043984704000D0023002B43B0
:1027300000D1CAE0002D00DBE7E030003900001BCB
:10274000A94153469860D96000229A5E002A8FDB27
:1027500043465D6953009C18E4002C19A768E4689F
:102760008C4200DD84E702D1874200D980E74646EB
:10277000328108360DE08C4200D1D3E01E000023E8
:10278000F25E002A0ADB53009C18E4002C19A768AB
:10279000E4689B18DB00EB188C42ECDD53461A8092
:1027A0004B46338043469B881BB2002B00DA65E71B
:1027B00043461A69EFF3108172B61368002BFCD000
:1027C000BFF35F8F43469E88012342465B4293805E
:1027D00036B21369BFF35F8F00221A6081F310884D
:1027E000002E00DA4AE743465D69083342469C46BC
:1027F0007700BF19FF00EF19BB68604698460823B1
:10280000D15E9246FC68002907DA0EE0A2424FD062
:1028100018000023C15E002906DB4B005B18DB00BB
:10282000EB18DA68A242F1DD524606800023FE5E14
:102830003980002EDCDA904643469B79002B00D18C
:1028400021E7002342469371434646460821595EDC
:1028500008364B1C24D047468946556902E00600DD
:102860004B1C18D04B005B18DB00E8180A008C46A4
:10287000E95E43881BB2002BF1DA01235B42DC17CF
:102880008360C4604A4503D031803B8903803A812C
:10289000E1464B1CE6D14C46B846002C00DBF8E67E
:1028A00040BF03B0F0BCBB46B246A946A046F0BD4F
:1028B0009A684245ACD9B7E7631C00D0F4E6FEE65F
:1028C000200023699847002825D1534642461B889B
:1028D00013811269EFF3108372B611680029FCD0DE
:1028E000BFF35F8F4246514652880A8042464946AE
:1028F00051801269BFF35F8F0021116083F310884C
:10290000B6E6864200D8FBE6B2E60B4800F01CFBB8
:102910000019694115E76568246807E7854200D812
:10292000D5E6BDE7874200D828E737E73C480020D6
:102930003C700540412600100040054070B52E4C0B
:102940002569002D04D00A212C48FFF70BFE70BD2D
:102950002B4E0321300000F0EDFAE660FFF7E4FBB8
:10296000284B03229C46D02322701B061B680121A2
:102970006370254B6044A3600F2380002061022018
:10298000638063694942A180198002311986473109
:102990001D83585218315A5275325C399952183287
:1029A000013199521832013199521832013199523C
:1029B000083518329D5202311832995218320131BD
:1029C0009952183201319952183201319952183204
:1029D000013199521832013199520C4B0C49DC608B
:1029E00001303562FFF71AFC01210320FFF7DAFB03
:1029F000084B1D60A7E7C046E8250020644A002078
:102A00000040054040000034FFFF10003C4800201B
:102A1000412600103860054000487047E825002036
:102A2000F8B51F0008AB1B7804001600002B08D176
:102A300000F092FA32003B00121A8B41002B00DAB0
:102A400053E02269EFF3108072B61368002BFCD0BC
:102A5000BFF35F8F0223E15E63694A005218D20020
:102A60009B18002937DB1A8862802269BFF35F8FC9
:102A70000025156080F31088069A9E60DF601A6159
:102A8000079A5A615A8801325204520C101C002ACB
:102A90001FD082B25880080410432669EFF31087D4
:102AA00072B63268002AFCD0BFF35F8FA2881A800A
:102AB000A1802369BFF35F8F00221A6087F310881B
:102AC0000B4923788C4601329A40E36863441A60CC
:102AD000F8BD0120DDE72369BFF35F8F00221A6094
:102AE00080F3108801204042F2E70020F0E7C04662
:102AF0003C20000070B501000469EFF3108C72B641
:102B000020680028FCD0BFF35F8F02200D5E4C6967
:102B100068004019C0002418002D37DB2088488049
:102B20000869BFF35F8F002606608CF31088E360AE
:102B300063880498013320615B0405985B0CA260F4
:102B400060611A1C002B1FD093B2280462801843C6
:102B50000A69EFF3108C72B61368002BFCD0BFF338
:102B60005F8F8B8823808D800B69BFF35F8F00227E
:102B70001A608CF310880B7801329A40CB680849B0
:102B80008C4663441A6070BD0122DDE70B69BFF318
:102B90005F8F00221A608CF3108801204042F2E718
:102BA0003C20000010B543890A1493421ADD5300FB
:102BB0009B184269DB00D3180469EFF3108C72B6DE
:102BC0002268002AFCD0BFF35F8F5A88090494B2B0
:102BD000090C8A4208D00369BFF35F8F00221A6094
:102BE0008CF31088002010BD8022120214435C80F8
:102BF000012302698371BFF35F8F002111608CF3A1
:102C00001088044902788C469340C26801206244CF
:102C10001360E8E73C20000040787047F0B50400FE
:102C20000D0006267642F717C64636196F4100B5E5
:102C300082B08F4214D811D000F08EF932003B00E0
:102C4000121A8B41002B17DC002B47D020002900E3
:102C500000F0C0F902B080BCB846F0BD8642EBD9A6
:102C60000022002316001F0000F076F932003B001E
:102C7000121A8B41002BE7DD00F06EF932003B00A9
:102C8000121A8B41002B0ADB00230193154B3200F3
:102C9000009315483B00FFF72DFF0028D6DB0023EB
:102CA0009C46B046114A124E736A9F4204D8B16ADC
:102CB0008845CBD99F42C9D11168EFF3108072B615
:102CC0000B68002BFCD0BFF35F8F1368BFF35F8FDF
:102CD0006146196080F3108820BFE5E7002AB5D06F
:102CE000CAE7C04611260010E8250020644A0020EB
:102CF0000040054070B5060000F02EF9FA220400ED
:102D00000D00002330000021920001F0EFFC802331
:102D1000001969411B06994202D301200249404231
:102D2000FFF77CFF70BDC046FFFFFF7FF0B5CE46CA
:102D3000474680B504000D0083B0EFF30587884651
:102D4000002F3ED12E4EA1463378F06804339B000D
:102D5000816A1B58601A5B1A98420ED320BF29491A
:102D600000204B6AAB4203D38A6A0130944231D8C7
:102D700003B0C0BCB946B046F0BD00F0EDF822008B
:102D80002B00121A8B41002B2FDB1F4B22000093CC
:102D900030002B000197FFF7ADFE011E25DD194B1A
:102DA0005A6AAA421BD220BF3000FFF7FBFE154A29
:102DB0000020536A4345DBD3926A01309145D7D94D
:102DC00008E0104900204B6AAB42D1D38A6A013037
:102DD000A242CDD25B1B5A1E9341D8B2C8E79B6A70
:102DE0009C42E1D9AA42DFD1DDE7064A0020536ABE
:102DF0004345BDD3926A01209145B9D9EAE7C0465F
:102E0000E82500200040054011260010F0B5CE4610
:102E10004746110080B583B004009C460C9D1943C1
:102E200000D16EE06146DB170193009353401E0012
:102E3000019B4B401F0000980199361A8F41634651
:102E40000A996B600B9BAC606B6129612A6000F092
:102E500083F88023801979411B06994202D301200F
:102E6000314940422269EFF3108972B61368002B92
:102E7000FCD0BFF35F8F0223E65E63697200921994
:102E8000D2009B18002E44DB1A886280226990468B
:102E9000BFF35F8F002247463A6089F31088234AC8
:102EA0009860D9601A615A885D6101325204520CEF
:102EB000111C002A2BD088B23204024359802069A9
:102EC000EFF3108772B601680029FCD0BFF35F8F63
:102ED000A1881980A6802369BFF35F8F0021196044
:102EE00087F31088124823788446013199400120E5
:102EF000E36863441960EA6003B0C0BCB946B046F9
:102F0000F0BD00230126002701229C4697E70121FE
:102F1000D1E72369BFF35F8F00221A6089F310881D
:102F20000020013AE7E7C046FFFFFF7F412600107F
:102F30003C20000010B5024A0248FFF785F810BD9A
:102F4000F06A0110B44300200300416A0A00986A45
:102F5000596A8A42FAD17047034B596A0A00986A43
:102F6000596A9142FAD170470040054070B504009B
:102F70000D00174A536A1900966A536A8B42FAD1B8
:102F80003000190024184D41AB4216D813D0104A16
:102F90002B00526A954203D90D494A6A9A42FCD3E2
:102FA0009A4207D10A4A02E0516A994202D1916AD3
:102FB000A142F9D370BDA642E9D9054B5B6A1C005A
:102FC0005A1CEFD0012301246442E5175B42E3E77A
:102FD00000400540064A536A9942FCD807D1044B89
:102FE00002E05A6A914202D19A6A8242F9D370474A
:102FF00000400540F8B5040006200D0000F03CFA42
:10300000002844D0374B3849E3185A1E9341802298
:10301000120494465B429B0D344A9B056344136043
:10302000334A136018000A689043FBD12D4B314A94
:10303000E31859424B4180215B0049000620995218
:1030400000F01AFA2900C00000F05EFC0130C3094C
:103050001ED1402701226262A362266BF30722D4AD
:10306000E36A254B0620E51800232B60266300F059
:1030700003FA3900800000F047FC7023E26A5A40EE
:103080000E3313402B601D4B23630323A364F8BD51
:103090001B4A93421ED900231A4A1B4F6262A36245
:1030A000266BF307DCD5194B144AE3181A60656ADE
:1030B000A36A0620AD01ED1800F0DEF9144900F016
:1030C00023FCAD020100280000F01EFC0021FFF7E8
:1030D0004DFFC5E74006800E9F011A003F18030010
:1030E000B9E7C0460080FCBF08C0004000E00040D7
:1030F00000F00040784A00202C100000010300007E
:10310000FEFF0000FFFF0000C0FF3F003030000066
:103110004E0E0000F8B5040006200D0000F0ACF9DA
:103120002900C00000F0F0FB0130C30921D01F4A84
:10313000934233D900231E4A1E4F6262A362256B5D
:10314000EB071DD51C4B1D4AE3181A60666AA36A7B
:103150000620B601F61800F08FF9194900F0D4FBEB
:10316000B6020100300000F0CFFB0021FFF7FEFEA9
:1031700006E0402701226262A362256BEB07E1D4DF
:103180000022E36A0F4B0620E3181A60256300F063
:1031900073F93900800000F0B7FBF8BD4006800EDF
:1031A0009F011A003F180300E5E7C046FEFF00003C
:1031B000FFFF0000C0FF3F003030000001030000AF
:1031C0004E0E00002C1000000539013AF8B5D2006F
:1031D0004C0105001443002B06D0013B5A425341D9
:1031E0009B00234302241C432E6BF30708D46E2359
:1031F000EA6A624013400E4AAA1813602E63F8BDB3
:103200000C4B0D4AEB181A606F6AAB6A0620BF01BF
:10321000FF1800F031F9094900F076FBBF02010008
:10322000380000F071FB0021FFF7A0FEDFE7C04689
:103230002C10000030300000010300004E0E000092
:10324000F8B5066B04000D01F30708D4E36A5D408E
:1032500010231D400D4BE3181D602663F8BD0C4B79
:103260000C4AC3181A60476A836ABF010620FF1818
:1032700000F002F9084900F047FBBF0201003800E6
:1032800000F042FB0021FFF771FEDFE72C10000089
:1032900030300000010300004E0E0000F8B5DE469D
:1032A0004E4657464546E0B58B4605000A9918003C
:1032B000160000F029FB0A9B6C001F02324B6419B8
:1032C0009C46A4006444636881469F4200D96760BD
:1032D0002B1FDBB29846012B30D9C02380229B01E3
:1032E000E31812011A60294BAD0059599A4600297A
:1032F0001BD17301E026226853401E4080234246C2
:103300005B01E3181E60012A30D9802380229B01D3
:10331000E31812011A6053464A4667605A51F0BCDE
:10332000BB46B246A946A046F8BD586900F0ECFA83
:10333000013043001B18033BFDD2DAE75B46012B4B
:10334000CBD1C02303229B01E3181A60023AA36881
:103350001A42FCD07301E0262268AD0053401E40A3
:1033600080230A4A5B019246E3181E605A46216890
:10337000514003220A401A6001225B469A40A3682A
:103380001A42FCD0C1E7C04600800040B84300208C
:10339000F0B546464F46D646C0B51F00344B4400F4
:1033A0009C462418A4006444636888461600FF2BDA
:1033B00002D880235B006360031FDBB29A46012BB7
:1033C00030D9C02380229B01E31812011A60294BD7
:1033D00085005959994600291BD17301E0262268BE
:1033E00053401E40802352465B01E3181E60012AB1
:1033F00030D9802380229B01E31812011A608023B8
:103400005B0063604B465F51E0BCBA46B146A846DC
:10341000F0BD586900F078FA013043001B18033BF7
:10342000FDD2DAE74346012BCBD1C02303229B0117
:10343000E3181A60023AA3681A42FCD07301E0262E
:103440002268850053401E4080230A4A5B01914652
:10345000E3181E6042462168514003220A401A6068
:10346000012342469340A2681342FCD0C1E7C04604
:1034700000800040B8430020014B8000C0587047D6
:10348000B8430020802270B506000E4C5200A3699C
:103490001D0015401342FAD1FA210B4B890018691F
:1034A00000F032FA0A2310212060064A23610B3B08
:1034B0006560A360666193691942FCD0D0694009D8
:1034C00070BDC04680800040B8430020F8B50400BD
:1034D00021481E0017000D0000F016FA0100380008
:1034E00000F012FA069B36041B031E432368002BD0
:1034F00020DB1A4B1A49E3185A1E9341802292018D
:1035000094465B421B0B174A1B0363441360164A25
:1035100013601F000A689743FBD1144B2560E21823
:103520002123A06013602368002BFCDA0823E660E7
:103530001360F8BD3F2322681340AB42D9D1A36882
:103540001B051B0D8342D4D1EE22E368D202134047
:10355000B342CED1EDE7C046001BB7000040FDBF2F
:1035600008C0004000E0004000F0004004300000CF
:1035700010B580241C4BE4051C6000281AD00123E0
:103580001A4C18431A4BDC611A4C44401C625962B5
:1035900098628021144BC9051960174817490860C3
:1035A000E021C9041960002A07D18022144B1206B9
:1035B0001A6010BD0E4BD861EBE753019B1A9B00BC
:1035C0009A18802312015B049A4209D213000D4914
:1035D0000B60074B5A608022094BD2051A60E8E75E
:1035E000094B1A00F3E7C04600B00540D3C007B04E
:1035F000008005402D3FF84FFCFF010008200140EE
:1036000000A005402C480020FFFFFF008023024A55
:103610009B000B43D362704700800540142310B514
:103620000100188804331B88984710BD162310B575
:103630000100188802331B88984710BDF8B547462B
:10364000CE4680B50F1E19D01423994604330400CA
:103650000025012698464B461888434621681B885A
:10366000984701C4431E9841013540420640AF428D
:10367000F1D13000C0BCB946B046F8BD0126F8E72C
:10368000142370B50400188804331B880D00054905
:10369000984703000020002C01DB0130A0402900E6
:1036A0009847C04655420000AA23064A1B011360F2
:1036B0002F230549D360054B19605368002BFCDAB2
:1036C0007047C0460040024000B0FA00006002406F
:1036D0007047C04610B50148FEF79EFC146B011000
:1036E00070B5074D074EB54209D20024013E761B46
:1036F000B60808CD984723000134B342F9D170BD14
:10370000406301107C63011070B5074D074EB54250
:1037100009D20024013E761BB60808CD9847230045
:103720000134B342F9D170BD746301107C630110A0
:10373000054B064A06491A60064A074B1A601000F4
:103740000B689843FBD1704700E00040BFCDFBFE03
:1037500008C00040FE7F3C0000F00040044BDB6CE2
:10376000002B03D18022034BD2021A607047C0465F
:10377000000011504C201150044A054B1A60054AB4
:103780001368DB018033FBD17047C046FFFFFF01A8
:1037900000F0004008C000404022034B9A675A677F
:1037A0001A67DA667047C04600F0014010B5FEF7B0
:1037B000D9FC10BD70B5044D044CA968C02220008E
:1037C00001F06EF8AC6070BD00ED00E0000000207C
:1037D000002310B5294C82B0A367FFF765FF0122D3
:1037E000274B1A60636C012BFCD10322254B1A6016
:1037F000224A936B012BFCD1013300930121224A11
:1038000022480433FFF762FE052301210093204A7A
:103810002048FFF75BFE0022022104201E4BFFF729
:10382000B7FD0022012105201C4BFFF7B1FD00224E
:10383000002107201A4BFFF7ABFD002200210820D2
:10384000174BFFF7A5FD8023DB000093002200212A
:103850000920134BFFF722FD0022104B0021062008
:10386000FFF796FD0420FFF707FE0E4900F04CF825
:1038700001000020FFF7CAFE02B010BD008000402A
:103880003CB0004030B00040002F6859008002403A
:10389000008C864700C00240001BB70040597307E8
:1038A000006CDC0240420F0001480421014B184724
:1038B000002600203D360010124A936F9B0815D257
:1038C0009066D166002905D0FFE7FFE7FFE7516F5B
:1038D000106F704704B580210906C21751400028B7
:1038E00000D0C84312F0A4FC002104BDF0B5146E52
:1038F000556E576F166FFFF7E3FF146655665767EF
:103900001667F0BD000000D0114A936F9B0813D2D8
:1039100010665166002905D0FFE7FFE7FFE7516F0A
:10392000106F704704B5002801D00020C04312F08A
:103930007FFC002104BDC046F0B5146E556E576F74
:10394000166FFFF7E5FF1466556657671667F0BDFB
:10395000000000D094464A4A926F9208624601D213
:1039600028E0C046F0B5464E346E756E776F366F00
:1039700000F020F89446424A146655665767166769
:103980006246F0BD94463E4A926F9208624601D26A
:1039900054E0C046F0B53A4E346E756E776F366FB0
:1039A00000F04CF89446364A146655665767166719
:1039B0006246F0BD002B24DB11D000293EDA00B5B1
:1039C000C943404200D1013100F038F8C9434042B8
:1039D00000D10131DB43524200D1013300BD002A46
:1039E000EBD1002801D1002905D00020C90FC9075B
:1039F00001D1C043410800B512F0E2FB00220023D0
:103A000000BD00B500290ADBDB43524200D101337F
:103A100000F014F8C943404200D1013100BDC94350
:103A2000404200D10131DB43524200D1013300F06A
:103A300005F8DB43524200D1013300BD002923D1F8
:103A4000002B18D1002A0CD0BC460D4F38667A6680
:103A500000210023FFE7FFE7FFE77A6F386F674633
:103A60007047002801D00748010000B512F0A8FBFC
:103A70000022002300BD02000B000020002170473F
:103A8000000000D0FFFFFFFF002B00D0BFE0130CB1
:103A900028D1002AE7D080B4114F39667A66FFE753
:103AA000FFE730B4040C7B6F396F1B0423433B6684
:103AB0007A66FFE7FFE7FFE7C04684B27B6F3D6FA2
:103AC0001B0423433B667A66FFE7FFE7C0460023FB
:103AD0002C042D0C7A6F386F00196941B0BC704707
:103AE000000000D0F0B594460025140E01D112025A
:103AF0000835140F01D112010435940F01D1920041
:103B00000235D40F01D152000135D40B0134254FB9
:103B10007C66254C3C660E0C93B2FFE7FFE7FFE79F
:103B20003C6F6643360C7703BE467343DF0B5B0482
:103B3000C01AB941130C7343DB18C91ACE08664387
:103B4000360CB64493B273431F0F1B01C01AB94120
:103B5000130C73431F0B1B05C01AB941860D8F024E
:103B60003E436643360C092D24DB520A7243801A09
:103B70007703460A6643360C16235B1BDE40DF40A4
:103B8000BF1964466643821B704604350633010044
:103B9000D940A840C01900D30131A24206D2002367
:103BA000F0BD0000000000D0FFFFFFFF121B01303E
:103BB000F3D3F1E709277F1BFE406446A2B27243AC
:103BC000801A00D20139220C7243130C1204821A9B
:103BD00099410B007046043513370100F940A840A5
:103BE000801900D30131002B02D1A2420AD2F0BDCC
:103BF000013000D30131121BFAD2013BF8D1A242AD
:103C000000D2F0BD013000D30131121BF7E7F0B54F
:103C10001C0C00D080E00CB400251C0A04D11B024F
:103C2000160E3343120208351C0B04D11B01160F6C
:103C30003343120104359C0B04D19B00960F334390
:103C400092000235DC0B02D192185B4101351C0059
:103C5000971864410134464F7C66464C3C660E0C16
:103C6000FFE7FFE7FFE7C0463C6F6643360C77038C
:103C7000BE4697B27743C01B00D20139C01B00D2A9
:103C800001399FB27743C91BC91B170C77437E04C8
:103C9000FF0B801BB941CE086643360C0C2D33DB7D
:103CA000B644120B1F053A431B0B97B27743C01B58
:103CB00000D201399FB27743C91B170C77433E04EA
:103CC0003F0C801BB941860D8F023E436643292776
:103CD0007F1BFE400C3D7746AF40BF1930BCA2B2FF
:103CE000ABB272437343801A9941220C7243130C96
:103CF0001204801A994102000B000137001BA941F0
:103D0000F9D2781E0021F0BD0C277F1BFE407746BC
:103D10007F0BAF40FF19E0E700245D1C07D0144F74
:103D20007D663966FFE7FFE7FFE7FFE73C6F95B287
:103D30009EB265436643401BB141150C1E0C6543A2
:103D4000664336042F0C3E432D04401BB14199427B
:103D500004D202000B0020000021F0BD01D19042EE
:103D6000F7D3801A994101349942F2D3F6E7000063
:103D7000000000D0FFFFFFFF48404140484018B41A
:103D80001B4B5B68FC46019308BD04DFBB40001081
:103D900018B4174B1B68FC46019308BD00DFC540F3
:103DA00000109446134A926F920809D2624618B4E2
:103DB0000F4BDB68FC46019308BD0CDF7D43001010
:103DC0000C4AF0B5146E556E576F166F6246FFF7CA
:103DD000EEFF084A1466556657671667F0BD18B4BB
:103DE000034B9B68FC46019308BD08DF214200108D
:103DF00088340020000000D0FFB5504042405040C1
:103E000059404B40594000E0FFB5154F4C00640D40
:103E100003D0BC4204D10C0314D80020090D0905BD
:103E20005C00640D03D0BC4204D11C030AD80022FC
:103E30001B0D1B0501264B4009D44B4003D58B427B
:103E400000D18242FFBD9942FCD19042FFBD0B439D
:103E5000DB1803431343F5D0C9434918FFBD0000E5
:103E6000FF07000000B5FFF7CFFF01D0002000BD25
:103E7000012000BD00B5FFF7C7FF804100BDC0466F
:103E800000B5FFF7C1FF01D9002000BD012000BD32
:103E900000B5FFF7B1FF01D9002000BD012000BD32
:103EA00000B5FFF7A9FF804100BD012040054A0091
:103EB000121804D85A00121801D8002070470120A7
:103EC000704700000021002805D17047C117484005
:103ED000401AFAD0C90713B5064B1B6898470CBCAB
:103EE000441CA2401005120B0349091B0905194384
:103EF000114310BD604A00201F04000010B54C00A3
:103F0000620D8023D218DB00D21A5B057E2A10DDF9
:103F10009E3A13DACC170903490819435242D1409B
:103F2000640001341532202A05DAD040084360438A
:103F300010BD002010BD0846604310BDC80FC0185A
:103F4000013810BD18B4044B5B6AFC46019308BDF0
:103F500024DF2D45001000008834002018B4044BE5
:103F6000DB6DFC46019308BD5CDF394600100000A4
:103F700088340020C94211D300B549004908002205
:103F800000F018F8002904D4002240428A4111466A
:103F900000BD80210906002000BD000018B4044BBC
:103FA000DB6EFC46019308BD6CDF3B450010000052
:103FB0008834002018B4044B9B6FFC46019308BD65
:103FC00078DF5745001000008834002018B4044BF7
:103FD000DB6FFC46019308BD7CDFC5450010000087
:103FE00088340020132370B51D78012D19D014DDFD
:103FF0001F48FFF71BFB06001E48FFF717FB1E4C70
:1040000080223100200000F04BFC022D2DD01B48F7
:10401000FFF704FB1A4B186070BD1A4B164CA364D3
:10402000F5E7184B144C23606360A360E3602361E1
:104030006361A361E36123626362A362E36223635A
:104040006363A363E36323646364A364E36423653A
:104050006365A365E36523666366A366E36623671A
:104060006367A367E367A364D1E7064BA364CEE766
:104070005344000053460000883400204C330000B5
:10408000604A00208940001007B5604601880A0A8E
:104090000230DF2AFAD1C9B2820804D302884088EC
:1040A0000004104300E00068014A5050039007BD2F
:1040B000883400200FB403BC0CBCF0B50124E40725
:1040C000634000E0F0B50C0DCF0F661E3605891B6E
:1040D000640503D3C943404200D30131640D03D0CA
:1040E000661CF60A07D0E41B00207F00791C8907B4
:1040F0008912803C24031D0DDF0F6E1E36059B1BAD
:104100006D0503D3DB43524200D301336D0D03D061
:104110006E1CF60A07D0ED1B00227F007B1C9B075C
:104120009B12803D2D032F1B661B58D4A446202EC6
:1041300046DA20371400BC401D00BD40F240334138
:104140002A4380185941CB0F05D0C943C0430022F0
:1041500064425041514162464D0D28D10D0D07D1A9
:1041600000281FD0241940414941013A0D0DF9D0D2
:10417000640006D3013000D30131002C01D1400886
:104180004000013A0BD4941CE40A04D112051144F6
:10419000DB071944F0BDD907204B194300E0D907CC
:1041A0000020F0BD0029DDD1002CDBD1F0BD0132B3
:1041B000C6074008CD0728434908002EE1D0D9E7BB
:1041C0003C2E29DA203E40371400BC4000D00124A8
:1041D000F24014431A00BB401C43D317ACE7AC4673
:1041E000202F08DA20360400B4400D00B540F84016
:1041F00039412843A5E73C2F0CDA203F4036040024
:10420000B44000D00124F84004430800B1400C43FE
:10421000C117EAE710001900002494E70000F07FBE
:10422000F0B50C0D661E3605891BE60A6405640DA3
:1042300002D0651CED0A04D0002001210905803C54
:104240002403A4461C0D671E3F05DB1BE70A64051B
:10425000640D02D0651CED0A04D0002201231B0569
:10426000803C24037740644497B484B296B274438C
:10427000070C7E43150C6F4380B26843361802D397
:10428000012000043F183004350C00197D4184469C
:1042900088B29AB250430C0C62431F0C7C438EB21E
:1042A0007E43921902D301263604A4191604170C72
:1042B0003618674101BC81B29AB25143040C624383
:1042C0001B0C5C4380B25843121802D30120000437
:1042D00024181004130C401863412D185E4100206F
:1042E000474106BC88B293B258430C0C6343120C8E
:1042F000544389B251435B1802D301210904641865
:1043000019041A0C091862416D18564100204741E2
:1043100018BCF902720D1143F0026A0D1043ED0250
:104320000A0D03D16D1940414941013B124E9B1BBF
:104330007600B3420ED26D0007D3013000267141E2
:104340006646354301D1400840001B05C918E40703
:104350002144F0BD0BDA013306D1013004D1013123
:104360004F0D01D04908F2E7E1070020F0BD01360A
:1043700031050020EBE70000FF030000F0B51C0D45
:10438000671E3F05DB1BE70A6405640D02D0661C4F
:10439000F60A04D0002201231B05803C2403D0250B
:1043A0002D060026F6432E661E096E66CE0FF61900
:1043B000B44649004F0D02D07E1CF60A03D00020FF
:1043C0000021403F3F033E1BB600B444013F7F0540
:1043D000C91B49082E6F013676089C02950D2543AE
:1043E0007543ED137543AD1301356D10F603761B60
:1043F0000CB4CC02450D2C43A2B2B3B25A43270CE5
:104400007B43350C6F43A4B26C431B1902D30124C8
:1044100024043F191C041D0CA4187D4124196D416E
:10442000009A91B2ACB26143170C7C432B0C5F43F2
:1044300092B25A43A41802D301221204BF182204D4
:10444000230C52187B41019C6C431B19520ED9015D
:104450000A434401A01A81B2B2B2514303145A4331
:10446000360C734387B27743D617D21900277E41A3
:1044700036049B191704160C7F185E417316ED184D
:10448000F301002680337541A90F06D16400690A43
:10449000E8055B0A184309D22FE0042294448033D4
:1044A0007541A90AA8059B0A184326D340414941F2
:1044B0002404009A019B0D005543641B4343E41AF6
:1044C00095B286B27543170C7E43030C5F4392B2DC
:1044D0005A43B61802D301221204BF183204330C17
:1044E00052197B4152429C41002C02D400220130DF
:1044F00051414008CA071043490802B06246D70735
:104500009210084BD218084B9A4203D21205891810
:10451000C919F0BD0020002A01DC3900F0BD0133CB
:104520001905F5E7FD030000FE070000002200B5B5
:10453000203200F010F8080000BD002200B500F0A5
:104540000CF8CA179A4200D100BDD8430121C9070F
:10455000414000BD00220B150AD410B5944600F06E
:10456000A7F81414013400DA0021CB17144C2047AB
:104570000020002170476244343A0CD40C2A07DA38
:1045800004009140904052422032D440214310BD5B
:10459000D843D94310BD203207D40C469440524230
:1045A00020321141D040204310BD0800C9172032ED
:1045B00003D452422032104110BD1800190010BD22
:1045C000774500104A00520D144BD21A13DDFF2A12
:1045D0001EDAD205CB0FDB071A43C300400F0903D5
:1045E000490A084310435B0001D301D001307047F2
:1045F0004308FBD2704702D0C80FC00770470A03B8
:1046000012130132F8D1420F072AF5D1012200E03E
:10461000FF22C80F00028018C00570478003000009
:1046200000210A00002104E000210A00C11704E073
:104630000022002306E0C0460022CB175840594014
:10464000C01A994130B5184CA21A002903D10100B3
:1046500010D00020203A4C1512D104D2013A001893
:1046600049414C0DFAD3114CA24204D212058918CB
:10467000DB07C91830BDD243520D00200021F5E7F9
:1046800003D4013A00184941FBD50B324405C00A56
:104690004D052843C90A640003D0002460416141EC
:1046A000E1E7E0D34408F8E732040000FE07000029
:1046B0000A0DCC0F531E1B05C91A520503D3C9435B
:1046C000404200D30131520D03D0531CDB0A07D006
:1046D000121B00206400611C89078912803A1203B2
:1046E000014BD21A70470000FF03000051434343BF
:1046F000C9188C46110C83B24B4310B4040C6143AF
:1047000092B280B2504362431C041B0C001910BCCF
:1047100059411304120CC018514161447047000004
:1047200007B548404140484001E0C04607B5420057
:10473000120E03D0FF2A03D1420218D8C00DC005C3
:104740004A00120E03D0FF2A03D14A020FD8C90D26
:10475000C9050122414005D4414001D5814207BD30
:10476000884207BD0143491801D0C043001807BD66
:1047700000B5FFF7DBFF01D9002000BD012000BD1F
:1047800001231B064200D21804D84A00D21801D8CF
:104790000020704701207047132310B512481C7881
:1047A000FEF744FF0100012C0AD003DD80220F48F0
:1047B00000F076F80E48FEF731FF0E4B186010BD82
:1047C0000A4C5422200000F06BF80B4B6365A36584
:1047D000E36523666366A366E36623676367A3678F
:1047E000E3672362E361E5E7534600008835002074
:1047F0004C330000604A0020FD47001007B56046BA
:1048000001880A0A0230DF2AFAD1C9B2820804D329
:10481000028840880004104300E00068014A5050BC
:10482000039007BD8835002070B504000A4E3000A3
:1048300011F076FD200010F083FB0500300011F030
:10484000B7FC002D05D0054B2C199C4201D828003F
:1048500070BD0348FDF7E0FB1C2D00200000042084
:10486000206B011070B50400054D280011F058FDB3
:10487000200010F06FFB280011F09AFC70BDC046BC
:104880001C2D002001480421014B18471026002050
:104890003D360010014B1B68184700001026002011
:1048A000014B5B68184700001026002010B5FFF789
:1048B000D9FF10BD7047C046F8B55746DE464E4694
:1048C0004546E0B599460A9B07009A460D9B8846E7
:1048D00093460B9C9B073BD10C9B9C423DD21E1BDD
:1048E0000B9415000C005E442A004B460135210054
:1048F0002020B847B542F7D1A0460B9C002C20D011
:10490000454636195346321B013C185D29004B467B
:10491000B847002CF6D12B00350098460D9B9B071D
:104920000FD55B46EC1A0C9BA3420AD94646984623
:104930002A004B46310020200134B8470135444558
:10494000F6D32800F0BCBB46B246A946A046F8BD47
:1049500016001500002CD3D1E0E71600002CCFD1B3
:104960001500EEE7F0B54F464646D646C0B584B0D2
:1049700098460EAB1B7894469946129B0D9C109F4F
:10498000119E9A0725D4002E65D1BC4221D2012266
:104990001A409246202C00D1E9E00C9A551E302294
:1049A00002E0202C00D17BE001342A55A742F8D840
:1049B0005246002A0DD0B4420BD20C9A551E30221A
:1049C000202C02D171E0202C2DD001342A55B44284
:1049D000F9D1DA063CD55A052ED4002C28D10F9AED
:1049E000102A00D1B6E0022A00D1BCE030220C9C93
:1049F000227001244A46002A65D15A0700D499E062
:104A00002B220C9D2A55013403930C9B6246009384
:104A1000029643460194FFF74FFF04B0E0BCBA464C
:104A2000B146A846F0BD2024DA06EDD55A0503D4D8
:104A3000A74266D0B44264D00F9A102A71D0022ADD
:104A400057D0202CE0D02200013430250C9FBD54DB
:104A5000202CD9D0CEE7012215001D40AA461A42CB
:104A600036D04A46002A4AD10C321A4247D1BC42BB
:104A7000A1D2202C91D1202E17D82024DA06C3D51C
:104A80005A051BD4202F01D0202ED5D11F220F9DD7
:104A9000102D6FD0022DD8D162250C9FBD54D0E7C8
:104AA0005246002A79D0202EBDD92024DA06ABD573
:104AB0005A0503D4202FE9D0202EE7D00F9A102AD0
:104AC000A2D12024A0E72D220C9D2A5501349BE77A
:104AD000BC4200D37DE7202C00D05EE7DA06F0D59B
:104AE0005A05EED4202F62D0202EEAD134001F22A6
:104AF000CDE7202C00D187E722000134CCE7013E2E
:104B0000B5E7621E012CC2D10F9A102A00D06AE7C5
:104B10009A063BD558220C9C2270283A62700224D7
:104B200068E79A060ED4202CCBD078220C9D2A550B
:104B3000013486E71A0700D466E720220C9D2A5527
:104B4000013461E7202CBCD058250C9A121915703D
:104B5000013476E79A0608D558220C9C2270302240
:104B60006270022446E76032F7E77822F5E7002A10
:104B700083D1B3E7A21E013C9D0603D478250C9F88
:104B8000BD5460E758250C9FBD545CE778220C9C0F
:104B90002270483A627002242CE7DA0600D433E728
:104BA0005A058BD4202F00D044E71F226FE73C002A
:104BB0001F226CE710B5002800D110BD01F0C0FB2A
:104BC000FBE7C0460B0010B5002802D049681B68FF
:104BD000984710BDF0B557464E464546DE46E0B50F
:104BE00099B08246894690460893229A239B1000EA
:104BF0001900FFF75AF9002800D0CDE02298239938
:104C00000122D94B5242FFF74BF9002800D0C3E0F4
:104C1000229823990122D54B5242FFF72BF9002805
:104C200000D0B9E02298239900220023FFF722F94F
:104C3000002800D0F1E1229E239F8023269ADB00EA
:104C40001A400D92269A1A4201D1062324938023FA
:104C5000269A1B011A403B0093460996334300D025
:104C6000B3E0002A00D0C2E1002300240A930B9491
:104C7000002304250993259B0024AB4200D95C1B2B
:104C80000223269A1A400C92269A134203D06B42B2
:104C90006B415B421C40099B002B07D00A9A0B9B7F
:104CA00030003900FFF77DF806000F0022982399A5
:104CB00000220023FFF7DEF8002803D08021090638
:104CC0007B181F00269AAA4B009601971340089E56
:104CD0000493249B03940293424633004946504672
:104CE00000F0AAF90400002D67D02020269A49463A
:104CF000024013005A4253415B42621C18400A9220
:104D0000330022004530D047099A6F1ED317D418BC
:104D10005C40D30F9B46002501E0202D13D008AA4C
:104D200094461F23200063440A2101355E19FEF7D3
:104D3000EBFD3031317020000A21FEF7E5FD260041
:104D40000400092EE9D805230693002304930A33AF
:104D500003935B46089E029310AB0A9A0093494660
:104D60003300504605970195FFF7FCFD0C9A0400AF
:104D7000002A22D04246851A259AAA421DD9B04659
:104D80005746160022004346494620200135B847C1
:104D90000134AE42F6D810E0269B42460493259B90
:104DA00049460393249B50460293229B239C0093E5
:104DB0000194089B00F040F90400200019B0F0BCF9
:104DC000BB46B246A946A046F0BD6A4B78009C4659
:104DD000400D6044FFF77AF8674A684BFEF7FFFF23
:104DE000674A684BFEF7D4FF674A3B031B0B1A4325
:104DF00004000D0009981100644B0022FEF7BFFF6C
:104E0000634A644BFEF7EBFF02000B002000290011
:104E1000FEF7BEFFFFF772F80990FFF757F85E4AFA
:104E20005E4B04000D00FEF7DAFF00225C4BFEF73C
:104E3000AFFFFFF763F85B4A5B4B29000C90200043
:104E4000FEF7CDFF04000C980D00FFF73FF8574A1E
:104E5000574BFEF7C4FF02000B0020002900FEF7AD
:104E60008EFF04000D0002000B000A940B95FEF764
:104E7000B6FF04000D000A980B9902000B00FEF724
:104E800087FF00220E900F914A4B20002900FEF769
:104E900088FF0022484BFEF77BFF02000B0020003A
:104EA0002900FEF77EFF0022444BFEF771FF02004F
:104EB0000B0020002900FEF774FF0A9A0B9B0D00DF
:104EC00080210400C9050020FEF759FF02000B00F5
:104ED00020002900FEF75CFF02000B000E980F99DE
:104EE000FEF75FFF0022284BFEF752FF344B0C9C6D
:104EF0009C46644423050022FEF771FF04000D0068
:104F000002000B00300039000A940B95FEF7B2FF47
:104F100000285DD123002A00C625099963318D42FE
:104F2000AD4159466D420435002900D1A3E6134333
:104F300063D030003900234A234BFEF7A9FF002835
:104F400007D0002230003900204BFEF793FF0028E5
:104F500053D1249B002B00D18DE60D9B5A1E93410B
:104F6000249AD31A249386E6FFFFEF7FFFFFEFFF1B
:104F7000FFF7FFFF01FCFFFFFB799F501344D33F76
:104F8000B3C8608B288AC63F0000F03F0000F83F9E
:104F900061436F63A787D23F71A379094F930A409A
:104FA0000000E03F1655B5BBB16B0240EF39FAFE89
:104FB000422EE63F00002C40000024400000184034
:104FC000FF0300002D431CEBE2361A3F80842E4184
:104FD000099B0022013B09932000164B2900FEF794
:104FE000E0FE0A00010003000A910B9294E70023FF
:104FF00000240A930B9400230993249A099B9A4254
:1050000014DDD31A013B24938023269ADB001A4334
:1050100000230025269209932DE68022120694464D
:10502000229B1E00239B63441F0006E6002324935B
:10503000EAE7C04600002440F0B54546DE464E464D
:105040005746E0B595B08B46904699461E9A1F9BF1
:105050000A9019001000209DFEF727FF002800D0BD
:10506000B0E11E981F990122C74B5242FEF702FF82
:10507000002800D037E11E981F990122C34B5242ED
:10508000FEF70EFF002800D0A7E01E981F9900220F
:10509000BF4BFEF705FF002800D088E01E981F993F
:1050A0000022BC4BFEF7E6FE002800D07FE01E98F1
:1050B0001F9900220023FEF7DDFE002800D0FAE051
:1050C00000230B938023229C229ADB001C401A426F
:1050D00000D102E1092D00D87CE106A98C462C0004
:1050E000172200233021093C62440133D154EF1AC6
:1050F000202B00D132E1A342F7D10022A44B06922B
:1051000007931E981F99FEF7F9FE0500FEF7DEFED5
:1051100002000B001E981F99FEF731FE069A079BAE
:10512000FEF75DFE08900991FEF70CFF0600FEF702
:10513000C9FE02000B0008980999FEF720FE002224
:10514000954B08900991FEF7ABFE002800D1D2E004
:1051500001363000FEF7B6FE069A079BFEF798FE72
:10516000002801D000260135AA46002F00D098E083
:105170002800FEF7ABFE02000B001E981F99FEF7F9
:10518000FEFD854B002206000F00FEF773FE0CAB00
:105190009A46002845D10022300039007E4BFEF7A8
:1051A0007FFE00283DD1EB073BD5013539E0229B3E
:1051B00042460493219B594603930A981E9B1F9CC9
:1051C0000295009301944B46FFF704FD15B0F0BC27
:1051D000BB46B246A946A046F0BD229B5B0767D4FA
:1051E00003226E4B2299019203912199029100931F
:1051F00042464B4659460A98FFF75EFBE6E706AA89
:1052000094461723280063440A2101341E19FEF72F
:1052100053FB3031280031700A21FEF74DFB051E8B
:1052200076D0202CEBD10323229A1340012B1DD1E1
:10523000219B002B1AD00B9B002B00D0BBE0229AA5
:105240000C33134200D0B6E0219BA34200D887E084
:1052500006AB9C4617223023624404E021990134B6
:1052600013558C4259D0202CF8D12024229B019434
:105270000393219B02935346B9E706AA944617234A
:105280000A216344300001341D19FEF73DFB303123
:10529000297030000A21013FFEF736FB092E46D95E
:1052A0000600202CE9D155460CAB20249A46B8E7DD
:1052B00004223B4B96E71E9A1F9B00200021FEF71D
:1052C0005EFD01230B938023229C229ADB001E901B
:1052D0001F911C401A4200D0FCE60022314B0627E9
:1052E000069207930DE7229B0393219B02930423CD
:1052F00001932D4B7BE7002208980999264BFEF776
:10530000B9FD002800D02FE7002E4FD101362BE742
:105310000323229A1340012B66D0202CA6D00B9B8E
:10532000002B1FD02D235246135501349EE75546BE
:10533000202CB9D030233A19002F08D0172006A905
:10534000013409180B55202CAED09442F6D10CAB89
:105350009A462E2352461355013462E72024CCE6A8
:10536000202C83D0229B5B0708D4229B1B0700D4F0
:105370007CE7202352461355013477E72B2352460E
:105380001355013472E7C046FFFFEFFFFFFFEF7FC9
:1053900065CDCD4165CDCDC10000E03F746B0110FE
:1053A0006C6B011080842E417C6B0110F30700D4DC
:1053B000DAE60136D8E6219B013B2193A34200D9CE
:1053C00046E7AAE7229B0393219B029303230193C1
:1053D000074B0CE7074BEA009B185C681B682F0023
:1053E0000693079400248CE6219B002B95D022E79E
:1053F000786B0110D06F0110F0B55746DE464E466F
:105400004546E0B5A5B01F002E9B91460D93CA4AB4
:10541000CA4B82468B461A60002900D129E200233C
:1054200038789846002800D12BE2C54B44460C93AF
:10543000C44B55464E460E930AE0631C9846220024
:1054400033005946A84744463878002800D187E001
:1054500001372528F1D108239A46043B9946023B9F
:105460009846013B00229C460B943878791C030037
:10547000203BDBB2102B03D80C9C9B00E3589F46CB
:105480000300303B0B9C0B92092B3AD90023984622
:105490002A2800D1DDE000239A462E284BD00300B5
:1054A000683BDBB2122B1ED80E9A9B00D3589F4646
:1054B00063460F001A43D8E743460F001A43D4E768
:1054C0004B460F001A43D0E710230F001A43CCE7D6
:1054D00053460F001A43C8E780235B000B9A787885
:1054E0001A430B9201310F0067284FD82428A4D902
:1054F0000300253BDBB2422B9FD893499B00CB583E
:105500009F46002398460B9B47469C4600E001318E
:10551000BB00DB195B001F180878303F0300303BED
:10552000092BF4D963460B930023B8469A460F0023
:1055300001312E28B3D180200B9AC00002430B9278
:1055400030225242944678780B0084446246092AFD
:1055500000D8AAE12A2800D1B9E10F0001319EE765
:10556000A046AA46B146C84503D301235B424B443B
:1055700098464B46424659460020D047200025B069
:10558000F0BCBB46B246A946A046F0BD0100693951
:10559000C9B20F2900D950E701238B409C466B4BC1
:1055A000994663464A4613400F9362464B461A4259
:1055B00000D068E10A2956D0072900D03DE70D9BAD
:1055C00002CB9846002900D092E10B9B10211A00D3
:1055D0008A43100011310843814680201A00C00020
:1055E0000240110003421CD114AB9C461F220F2322
:1055F00062440D959C4615000F9B0B9402E0202BF6
:105600000CD0110064460C4020003730092C00D823
:1056100007380133E8540A090F29F0D80B9C0D9D77
:105620000F934B4608220693534605920832039285
:10563000002204930F9B029201931CAB2200009363
:10564000594633002800FFF78DF9434604000D93B7
:10565000FAE60D9B04CB9046002A79DB78780D930F
:105660000F00013117E70D9B02CB14930B789C467A
:1056700018005346002B00D134E1002815D05346C2
:10568000013B013399460D940B9C89444A460B001B
:10569000A14601E0934203D05C780133002CF9D19C
:1056A0004A465B1A0D9C0B920F938023DB009946B0
:1056B0000B9A13400D934B461A4204D00F9B53454F
:1056C00001D953460F93022399460B9A13400B932B
:1056D0004B46134200D1F5E16346002B00D1D6E1E1
:1056E0000D9B002B00D182E10B1BD14631009A4665
:1056F0003B00A1442E005F464D4622009B46894652
:1057000009E04B463900541CB0475346185D002849
:1057100000D192E122009542F3D14B465A46A94668
:10572000BB46350017001E004C460B9B002B00D0DB
:10573000ADE1149B0D9387E6F95300102848002033
:10574000346E0110786E0110C46E0110419000009B
:105750000B9A283802430B92424652427878904680
:105760000F000D93013196E678786C2800D15DE149
:1057700080230B9A5B001A430B920131B3E680231E
:105780009B00ABE67878682800D148E180230B9A2B
:1057900001311A430B92A6E6672800D1B2E04728F0
:1057A00000D11AE1452800D11CE10B9A072104928F
:1057B00042460D9B0392073352468B4319000292D7
:1057C0000CC92800009201930D9122003300594624
:1057D000FFF700FA040037E6462800D18DE00B9A67
:1057E0000721049242460D9B0392073352468B4396
:1057F000190002920CC92800009201930D91220019
:1058000033005946FFF718FC04001DE6631C984658
:105810002200330059462520A847444614E60D9B34
:1058200004330F93631C99460B9B9A0700D40AE13B
:105830000D9B2200187859463300A847434644443C
:10584000012B00D86FE1B0462E0025004C46B9462A
:105850005F4622004346013439002020B047AC4265
:10586000F7D12C00BB4635004F4646460F9B0D93A3
:10587000EAE5D64B38789A4600239846002800D0AF
:10588000D3E500246FE66F2842D000D8FDE1102355
:10589000782800D19BE00B9A9A430B920A239C46EE
:1058A000002314930A330F9338E057460B9AB9003C
:1058B000C919490001330F181878303F01003039F9
:1058C0000929F4D9BA460B921F00591CE7E50D9B34
:1058D000B87804CB0237D143C9170A4092460D93DA
:1058E000791CDCE5002800D1DFE602235B42C8E634
:1058F00021200B9A0243914676E620230B9A1A4305
:105900000B926CE780230B9A1B011A430B924CE716
:1059100008239C460023149308330F930B9880238D
:105920000200DB001A4011000200184200D080E0A3
:105930000C239A431000802302009B001A400B9214
:10594000184200D0F1E0802302005B001A4091462B
:105950000D9A04321492184200D0C3E2430600D5D7
:10596000D7E0030600D421E30D9B1B880993002B8D
:1059700000D02DE110339843002900D128E1002305
:10598000994643460593534604930F9B0690039311
:10599000002302934B4601931CAB2200009359460F
:1059A00033002800FEF7DEFF0400C2E6582809D0C5
:1059B000622800D0E3E202239C46002314930233C2
:1059C0000F93ABE720230B9A1A430B92103B9C4694
:1059D0000023149310330F93A0E780230B9A1B012D
:1059E0001A430B9220230B9A1A430B92DDE60B1BF2
:1059F0009A460F9B99463B0037005E469B46220025
:105A00003B003100A84753460134185D0028F6D109
:105A10004B460F935B46B3463E001F0085E6C0230E
:105A20000B9AB8781A430B92F91C5CE5C0239B00D3
:105A3000F6E70D239A4310007DE75B463500BB4631
:105A40004E461F0071E64346012B66D9631E434450
:105A500032002E001D003B00A2465F4691469B4649
:105A600022004B46013439002020B047AC42F7D128
:105A70005B463500BB464E46A14654461F000D9B73
:105A80004A461878594633004444A847EEE60F9B2F
:105A9000A146984500D84CE64444E41AB0462E008E
:105AA00025004C46B9465F46220043460134390082
:105AB0002020B047AC42F7D12C00BB4635004F4602
:105AC000464636E60F98804500D873E24346E21812
:105AD000131A32002E001D003B0091465F469B4684
