:020000041000EA
:10000000002008205D01001013010010A12B011039
:100010001101001011010010110100101101001058
:100020001101001011010010110100101701001042
:100030001101001011010010190100101B01001026
:100040001D0100101D0100101D0100101D010010F8
:100050001D0100101D0100101D0100101D010010E8
:100060001D0100101D0100101D0100101D010010D8
:100070001D0100101D0100101D0100101D010010C8
:100080001D0100101D0100101D0100101D010010B8
:100090001D0100101D0100101D0100101D010010A8
:1000A0001D0100101D0100101D0100101D01001098
:1000B0001D0100101D0100101D0100101D01001088
:1000C0001D0100101D0100101D0100101D01001078
:1000D0001D0100101D0100101D0100101D01001068
:1000E0001D0100101D0100101D0100101D01001058
:1000F0001D0100101D0100101D0100101D01001048
:100100001D0100101D0100101D0100101D01001037
:1001100000BE00BE00BE00BE00BE00BEEFF3058004
:10012000103800BEF2EB8871E0E3011008E4011022
:10013000A801001090A31AE7D3DEFFFF42012110AF
:10014000FF01000068150200793512AB4FF0000086
:100150002049086006C881F3088810474FF05040D6
:10016000006810B14FF00000F2E70FA40ECC002998
:1001700002D000F015F8F9E71749184A002000E00E
:1001800001C19142FCD1002080F30A8814498847BC
:10019000144988471449884700BEFDE701C901C2D8
:1001A0009A42FBD3704700BF08E401108801002089
:1001B00020340020A01602100000082000000820B3
:1001C000A0160210001008200010082000000000F7
:1001D0007047000008ED00E0203400203C4F002074
:1001E000115A001099050010D5590010F8B500BF3C
:1001F0000348044B834202D0034B03B118477047B6
:10020000203400202034002000000000064B074965
:10021000C91A891048BF0131491003D0044B0BB1F2
:1002200001481847704700BF2034002020340020C8
:100230000000000010B5064C237843B9FFF7D8FF43
:10024000044B13B10448AFF300800123237010BDA9
:10025000983E00200000000008AD011008B5044BD6
:100260001BB104490448AFF30080BDE80840CDE766
:10027000000000009C3E002008AD01100120014B51
:10028000187070472E4F00202DE9F04FB7B00EF0D8
:100290005DFC18B99C4805F069FDFEE79B49012209
:1002A0009B480BF0ADFF9B4C0146207018B19A485B
:1002B00005F0DEFDFEE7994D0A22284698490CF02C
:1002C00047F82070E0B9974928460DF0FDFCDFF8AB
:1002D000A08200280146C8F8000016DB28460DF071
:1002E00083F801462070B8B98D49012228460CF0E8
:1002F0002FF80146207098B18B4805F0B9FDFEE754
:100300000146894805F0B4FDFEE7884805F0B0FDD8
:1003100028460DF069F8FEE7854805F0A9FDFEE7DF
:100320007F49844805F0A4FD834805F01FFD834EF6
:1003300002E0304605F09CFD2A46642130460DF06F
:10034000DFFA0028F5D17E4805F010FD73480DF066
:100350004BF80146207018B1754805F089FDFEE79D
:100360006F490A226D480BF0F3FF0146207018B167
:100370006D4805F07DFDFEE7724968480DF0A4FC6C
:1003800003466648C8F800300DF02EF8014620708C
:1003900018B1674805F06CFDFEE76B4808F0CAF835
:1003A0006A4813F017F80146694805F061FDDFF867
:1003B000C4B1DFF8C4A1674F674EDFF8609108F061
:1003C000C1F843F239039842F9D101238BF8003088
:1003D000624B1222484652499B6A0BF0B9FF2070CB
:1003E000002840F08680D5E9042348460DF030F817
:1003F000B36BC8F800002193736B4846209396F8BE
:10040000303057491C9396F820301893DAE90223CC
:10041000CDE92E23CDE92A23524BD3E90023CDE9A0
:100420003423514BD3E90023CDE932234F4BD3E999
:100430000023CDE93023DAE90423CDE92C23DAE9DE
:100440000023CDE92823D6E91423CDE92623D6E9D4
:100450001223CDE92423D6E91023CDE92223D6E9BE
:100460000A23CDE91E23D6E90623CDE91A23D6E9CE
:100470000223CDE91623D7E91023CDE90C23D7E9D0
:100480000E23CDE90A23D7E90C23CDE90823D7E9C8
:100490000A23CDE90623D7E90823CDE90423D7E9C8
:1004A0000423CDE90223D7E90223CDE90023D6E9CD
:1004B0000423CDE91423D7E91623CDE91223D7E984
:1004C0001423CDE91023D7E91223CDE90E23D7E970
:1004D00000230DF0F9FB0028C8F800004EDB484669
:1004E0000CF082FF207048B91C4B8BF800009B6A0F
:1004F00065E701460C4805F0BBFCFEE701460C48E9
:1005000005F0B6FCFEE700BF08AD011030AD0110EC
:10051000783B00202F4F002034AD01101839002007
:100520007828002084AD011060AD01108CAD011061
:10053000B4AD0110D8AD0110F4AD0110B0470020EA
:10054000FCAD011004AE01109F86010000000840C0
:1005500010AF0110E83D00203037002000000B40B4
:1005600024AF011080280020683E0020283700209A
:10057000A84E0020324F0020703E00200146034864
:1005800005F076FC02480CF02FFFFEE78CAD011061
:1005900018390020000000002DE9F04F01222DED58
:1005A000048B002400258BB01146A148CDE90645F7
:1005B000CDE9084502F050FA9E4805F059FC05F0D7
:1005C00091FB9D4800F040FE9C4A9D499D4800F0EB
:1005D0005FFF9A4A9C499B4800F05AFF032108207C
:1005E00001F0B6FE0321092001F0B2FE03210E2026
:1005F00001F0AEFE03210F2001F0AAFE002201212E
:10060000082001F0C3FE00220121092001F0BEFEF6
:10061000002201210E2001F0B9FE002201210F204D
:1006200001F0B4FE4FF4FA7002F0FCFD874805F0CB
:100630009DFB192001F0DCFE19264FF0010343EC6D
:100640004460834805F092FB824B1B7843EC40608A
:100650004FF4FA7002F0E6FD7B497F4801F0EEFBB3
:100660007E4805F083FB642002F0DCFD76497C487F
:1006700001F05EFA7B4805F079FB642002F0D2FDC0
:10068000794805F073FB6E49784801F067FD7848BA
:1006900005F06CFB642002F0C5FD764805F066FBB2
:1006A000642002F0BFFD0821734805F0E1FB08213A
:1006B000724805F0DDFB6021714805F0D9FB4FF071
:1006C000640A26462F46DFF88091DFF89481494678
:1006D00006AB08AA404601F07BFADDE90623304666
:1006E000394603F005FBDDE9082306460F462046A0
:1006F000294603F0FDFABAF1010A04460D46E6D197
:100700003046394648A7D7E9006700225D4B03F021
:100710003DFB0022CDE906015A4B2046294603F055
:1007200035FB0B46024601255748CDE9082305F065
:100730009FFBDDE90623554805F09AFB08234FF49B
:10074000165253495348009500F0C4FF044640F642
:10075000B83002F067FD214642F6E0624E4805F0EF
:1007600087FB02F0E9FB4D4B4D4ACDE901A3009216
:1007700000234C4A02F0C4FD284603F06BF80446FF
:10078000494805F0F3FA2146484805F071FB464810
:1007900005F0ECFA464807F027FF07F0D3FE45497D
:1007A000454805F065FB4FF00008DFF8249116E09E
:1007B000294600222046414B03F0B0FB0146404849
:1007C000002900F0878022462B46CDF800A005F0D6
:1007D0004FFB40F6B83002F025FD0AF1010A394B13
:1007E000174903F110020092204803F1080201F0BA
:1007F00043FD35493246D1E902013B4603F0A0FAF8
:1008000042464B4604460D4603F0C4FB0028CFD0B9
:1008100022462B46CDF800A02C4805F029FB40F6D7
:10082000B83002F0FFFCD8E78DEDB5A0F7C6B03EBA
:100830002443002098AF0110E04C0020801A0600ED
:10084000902C0020984C0020882C0020A0AF011094
:10085000A8AF011089280020E4410020B4AF0110A6
:10086000FC420020C4AF0110D4AF0110F8420020B8
:10087000D8AF0110E8AF0110F4AF011004B00110BF
:1008800014B001100000594024B001103CB0011018
:1008900000000740044F002058B00110503E0020D7
:1008A0007D020010A086010084B001108CB0011000
:1008B000890200109F860100A0B0011000002540B1
:1008C000D4B00110F03D0020E83D0020ACB0011094
:1008D00000002B402B460FF2801BDBE900AB2246C9
:1008E0005F48059105F0C4FA05999FED578B0D46B9
:1008F0005C4EDFF890815C4F0024204603F0A2FAA2
:100900008DED028B02460B463046CDE900AB00F080
:1009100043FD02460B463046294600F06DFD294650
:10092000404605F0A5FA2146384605F0A1FA013403
:10093000322002F077FC142CDFD1204603F082FA3B
:100940008DED028B02460B463046CDE900AB00F040
:1009500023FD02460B463046294600F04DFD294650
:10096000404605F085FA2146384605F081FA3220E6
:1009700002F058FC013CE0D24FF4FA70013502F06D
:1009800051FC042DB8D1394805F0F0F9384805F08C
:100990006FFA00240025DFF8F0A0DFF8F0B0354B47
:1009A0001B78D3B9344BD3E9000129A3D3E9002341
:1009B00003F0A2FA8046F0B9DAF80030012B67DCC8
:1009C0002E2005F091F94FF49670CAF8008002F0DD
:1009D00029FC284B1B78002BE4D0584601F068F81E
:1009E000254BC3E900011AA3D3E9002303F084FADD
:1009F00080460028E0D016A3D3E900231F4805F065
:100A000037FADAF800301E480133CAF8003005F032
:100A1000ADF902E0642002F005FC584601F048F808
:100A200080468946144E22462B46C6E9008903F0CB
:100A300063FA0028EED0DAF800300133CAF800304B
:100A4000ADE700BFAFF30080666666666666EE3FA0
:100A500000000000801CC8409A9999999999E13F3B
:100A6000F8B00110E04C002020B1011030B10110AD
:100A700044B1011088280020903E00204CB10110A4
:100A80005CB1011010B10110F84E0020204F002081
:100A9000854CD4E8AF3FDA0740F1A283834CD4E819
:100AA000AF3FDB0740F19083DFF868A2804CDFF8AE
:100AB00068B2804B1B78B3B100237E4A13707E4A24
:100AC000137883F001031370192243EC40207B4B11
:100AD0009B78472B00F022819AF800303BB9754B88
:100AE0001B78002BE8D19AF80030002BFBD0744B18
:100AF000744D9A6A9B6A02F0ADFC05F12803C5E9C2
:100B00000001A3F1080259466F4801F061F805F1B0
:100B10003803A3F1080202F1100100916B48594615
:100B200001F088FA05F15003A3F1080202F1100167
:100B300000916648594601F0C7FA05F1080303F130
:100B4000080202F1080662496248009601F094FB2F
:100B50004BA3D3E90023D5E9020103F0F1F8002209
:100B60005D4B03F0DBF90546002840F098825B4BB3
:100B70001B78002B40F046819FED437B584B57EC90
:100B8000176B83ED007BDDE906234E49554DD1E916
:100B90000A0103F0C1F83EA3D3E9002303F0F6F8FD
:100BA0000022514B03F0CCF802460B463046C5E913
:100BB0000023394603F0B0F80B4602464B4DC5E919
:100BC00000234B4B1B78002B00F059810FF2C80912
:100BD000D9E9008900259FED328B354F454E8DEDCB
:100BE000028BCDE90089F7E80223304600F0D4FB00
:100BF00002460B4630462946013500F0FDFB042D28
:100C0000EDD13B4B19783C4805F032F934490022CC
:100C1000D1E90001394B03F093F80B4638490246FD
:100C2000D1E900673748CDE9006705F021F92D4982
:100C30000022D1E90001314B03F082F80B46024655
:100C4000314805F015F9D4E90623CDE900232F48F2
:100C5000D4E9022305F00CF9D4E90423CDE90023FB
:100C60002B48D4E9002305F003F943F2390007F0DB
:100C700061FC00238AF800301BE700BFAFF300805F
:100C80008DEDB5A0F7C6B03E0000000000000000EA
:100C90000000000000A88F409A9999999999E13F26
:100CA000666666666666EE3F0843002004430020E1
:100CB000703E0020344F002089280020E44C0020A2
:100CC00000000B40E83D0020FC420020E4410020F1
:100CD000902C0020F84200200000254088280020A9
:100CE000683E0020283700200000244008390020FA
:100CF000294F0020E04C00206CB201100000594048
:100D0000802800207CB20110A8B20110C0B20110EE
:100D1000F4B201102E4F0020882C0020AC4BDB7861
:100D2000472B7FF4D9AEAA4B1B79412B7FF4D4AE6D
:100D3000A84813F0FBFBA84DC5E90401A74813F030
:100D4000F5FB0022A64B03F021F88946804603F00C
:100D50009DF803F077F806460F4632463B4640467C
:100D6000494602F0D9FF00229E4B03F00FF83246AD
:100D70003B4602F0BDFF964BC5E9060193F82D30C6
:100D8000994885F8203013F0D1FB02460B46C5E99F
:100D90000A230022924B02F0F9FF8946804603F0B5
:100DA00075F803F04FF806460F4632463B4640467C
:100DB000494602F0B1FF00228A4B02F0E7FF3246BB
:100DC0003B4602F095FF824BC5E9060193F84B3094
:100DD000864885F8303015F00BFF6863844815F0BD
:100DE00007FFA863834813F0A1FBC5E910018248FF
:100DF00013F09CFBC5E91201804813F097FBC5E98D
:100E0000140169E67E4800F053FE0B4602467D4E13
:100E1000C6E9002303F03AF87B4B984200F01081BA
:100E20007A4B984200F08D80794B984240F0AD802B
:100E30000FF2841BDBE900AB0FF28419D9E90089BA
:100E40009FED618B734E744C00220023CDE902AB01
:100E5000CDE900892046A6EC028B00F09DFA0246FF
:100E60000B4620462946013500F0C6FA042DEBD189
:100E7000644B6A48D3E9002304F0FAFFFEE7684BAD
:100E8000D3E9002302F05CFF0022664B06460F46C2
:100E900003F044F8002840F0FF8030463946002235
:100EA0004F4B03F077F808B100264D4F9FED467B7E
:100EB0000FF20C19D9E90089CDE900673246C4E97F
:100EC0000267C4E906673B4684ED047B84ED007B42
:100ED000554804F0CDFFD4E90423CDE90023D4E93B
:100EE00000234C4C514804F0C3FF002527469FEDDA
:100EF000328B494E8DED028BCDE90089D7E9002375
:100F0000304600F049FA02460B463046294600F0CA
:100F100073FA8DED028BCDE90089F7E802233046A4
:100F200000F03AFA02460B4641482946013504F0E2
:100F30009FFF042DDED13F4B197800293FF463AEAB
:100F400044E601230FF27809D9E900899FED1E9B41
:100F50009FED198B374A2F4F2F4E13708DED028B5B
:100F600000220023CDE900893046A7EC029B00F067
:100F700013FA02460B4630462946013500F03CFA8A
:100F8000042DEBD12C4804F0F1FE2A4B1D4A1B78AE
:100F9000D2E90067002B55D03046394600220023A5
:100FA00002F0F8FF002840F0E780244BD3E9006707
:100FB000E9E500BFAFF30080666666666666EE3FF1
:100FC0009A9999999999E13F00000000000000006A
:100FD000E44C0020F34C002030370020024D00206C
:100FE0000000594000004E40204D00203E4D0020A2
:100FF0004D4D00205C4D00206B4D0020894D0020A0
:10100000204F0020903E002048DDFFFFA9FBFFFF9E
:10101000F1D8FFFF703E0020E04C0020A4B1011089
:1010200080280020000059C0F0B1011024B2011046
:101030005CB20110294F0020B8B10110683E0020B9
:10104000754B1D70754B0022D3E9006700233046B5
:10105000394602F09FFF002840F08580304639462F
:101060000022002302F05AFF00289ED062A3D3E999
:1010700000233046394602F08DFF002895D068489D
:1010800000F016FD0246674BD3E9006701F100430B
:101090006549C1E9002376E50026644F06E7002490
:1010A0000FF25C1BDBE900AB0FF25C19D9E9008998
:1010B00000265F4D5F4F32463B462846CDE902ABE6
:1010C000CDE9008900F052F902460B462846214638
:1010D000013400F091F9042CEDD14DA3D3E90023A4
:1010E00055494FF00107D1E9020102F029FE0246FD
:1010F0000B46524804F0BCFE4FF0000619240325AD
:1011000047EC4040C82002F08DF846EC4040C82033
:1011100002F088F8013DF3D1642002F083F8032542
:1011200047EC40404FF4C87002F07CF846EC404079
:101130004FF4C87002F076F8013DF1D1642002F05E
:1011400071F8032547EC4040C82002F06BF846ECEC
:101150004040C82002F066F8013DF3D14FF47A70A8
:1011600002F060F8CBE72E4800F0A2FC06460F46DE
:101170002C4BC3E9006706E53946304602F086FE8F
:101180004FF47A7890FBF8F508FB05F002F05AFE70
:1011900002460B463046394602F0BEFD02F076FEAE
:1011A00090FBF8F303FB180002F04CFE0B460246DE
:1011B00004EBC50629462248C6E9002304F058FE80
:1011C000184BD3E90067DEE4204612F037F9002817
:1011D0003FF46AAC1B4B20469B6A12F04BF963E468
:1011E000204612F02BF900283FF458AC154B20464E
:1011F0009B6A12F03FF951E40000000000407FC0FC
:10120000666666666666EE3F9A9999999999E13F96
:101210008DEDB5A0F7C6B03E294F0020903E0020CE
:10122000204F0020683E002080280020000059C088
:10123000E04C00200000E03FE83D00207CB10110C0
:10124000CCB1011000000B402DE9F843042102202D
:1012500001F07EF80421032001F07AF80421062031
:1012600001F076F80421072001F072F89FED387B39
:1012700047F230584FF00009374E002547F2305101
:10128000A022012386ED007B86ED067BC6E902895C
:10129000C6E90889314C324F6561E56125626162BA
:1012A000A26163616561E56125626162A26163615A
:1012B000E5636564A564E1642264E363E5636564F2
:1012C000A564E1642264E363236AA02283F4AF434C
:1012D00083F064039BB23B6247F23053C6E90423B8
:1012E000C6E90A23D4F82080706902F0BDFD00220F
:1012F0001C4B02F025FD02F0DBFDDFF86C9088EA64
:10130000004808EA09003862306A02F0ADFD0022A8
:10131000144B02F015FD02F0CBFDD4F8488088EAAA
:1013200000081FFA88F0B864F06A02F09DFD002200
:101330000C4B02F005FD02F0BBFD0346A46C2846F1
:1013400084EA034404EA0904BC64BDE8F88300BFEE
:1013500000000000A00000002034002000800A40AF
:1013600000900A400000E83F0000FFFFF8B5DDE90B
:101370000667DDE9080114461D4632463B4602F089
:10138000CBFC22462B4602F0DBFC32463B4602F009
:10139000AFFCF8BD00000000F8B5DDE906671046B7
:1013A00019460022124B02F0A3FC0022114B02F05E
:1013B000C7FC0DA3D3E9002302F0C2FC3246044669
:1013C0000D46DDE908013B4602F0A6FC02460B464D
:1013D0002046294602F0B4FC32463B4602F088FC27
:1013E000F8BD00BFAFF300807B14AE47E17A843FC5
:1013F000000059400000E03F70B514461D460E46FF
:101400000022204629461D4B02F0C4FD30B90022BF
:1014100000232046294602F081FD08B1012070BD5D
:10142000174B06EB4601174A03EB8103986852F805
:10143000266002F019FD22462B4602F081FC02F0E4
:1014400037FD73081F2E8ABF03F0030303F0070361
:1014500008330D4A03EB83039B001A44F30758BF7C
:101460004FF6FF71136880B244BF00040749434040
:1014700002F580520B400020136070BD0000F03F69
:10148000203400204CBF01100C800A400000FFFFF8
:1014900010B508461146144607F0A4F9001B18BF02
:1014A0004FF0FF3010BD00BF10B500249C4684B043
:1014B0000846069B114600940DF10F028DF80FC0EF
:1014C00007F0B6F9204604B010BD00BF10B50024E7
:1014D0009C4684B09DF8183008468DF80D301146B2
:1014E000022303AA00948DF80CC007F0A1F920464E
:1014F00004B010BD2DE9F04383B002AF7C6A0D4605
:1015000004F1080020F00700ADEB000D164604F1D1
:1015100001090DF108088DF808302CB12246396A0E
:101520000DF1090015F056FC00244B4642463146A9
:101530002846009407F07CF920460437BD46BDE8F4
:10154000F08300BF70B51E4684B0154601200C46DE
:101550008DF80F60002603460DF10F02009008463B
:10156000294607F065F9DDE908232946204600965B
:1015700007F066F9304604B070BD00BF4E4A93696B
:10158000D90600F197802DE9F04F0026B046DFF82C
:1015900038B1DFF838A1DFF838919BF800409AF8AD
:1015A00000E099F800C0936913F01003FBD11068B4
:1015B000C0B2002C41D0242868D02C2871D00A2831
:1015C0006BD025461F463D4ACEEB0E110A4402F869
:1015D0000C000CF1010C5FFA8CFC37498A69D206C9
:1015E00019D48A6912F01002FBD10868C0B224280D
:1015F00045D02C283BD00A2836D0304DCEEB0E12E9
:101600002A4402F80C008A690CF1010CD206254626
:101610005FFA8CFCE5D52A4A214610703C46C5B9D4
:101620000BB18AF800E00CB1264B1E70B8F1000F28
:1016300001D08BF80010BDE8F08F242810D021468F
:101640009369DB060AD500251D4A2B461070002D34
:10165000E6D089F800C0002BE3D1E4E70C46A2E70E
:101660004FF001084146EBE727462646B6E70EF164
:10167000010E9446254623465FFA8EFEAEE7944659
:1016800025462346274696461646A7E79C46254606
:1016900023462746E64666469FE71D4627462646DA
:1016A0009BE79C460EF1010E2546234667465FFAEE
:1016B0008EFE92E7704700BF00000740E44C002018
:1016C0003A4F0020344F0020374F0020354F002084
:1016D000364F00202DE9F041AA4894B081420C46D3
:1016E00015461E461A9F00F0A081A74B994240F074
:1016F00095811146204601F00BFF0221042000F0E5
:1017000027FE0221052000F023FE2946204601F095
:1017100081FF216B9D4801F44041016300233A465B
:101720003146204601F0C4FF2046002101F0F8FFB9
:101730002220012100F09EFF50222346924EA263F8
:10174000A61BB6FA86F653F8342FDFF858C202F01B
:10175000380203F5805308AD1A60BCE80F000FC5CE
:10176000BCE80F000FC59CE80F00894F07C576093C
:1017700037F916E02B80BEF1240F00F0F880A36942
:101780009A06FCD42420206004F0AEFA0DF11F0567
:101790000DF14C0815F8010FA3699B06FCD42060DD
:1017A00004F0A2FA4545F5D1A3699906FCD42A2094
:1017B000206004F099FAA3699A06FCD432202060D4
:1017C00004F092FAA56915F02005FBD139202060BC
:1017D00004F08AFA0D2210466E49002D40F0E48094
:1017E00037F91630934200F0E780A3699B06FCD4DA
:1017F000A2F10D05B5FA85F5226011F8012F6D09EA
:10180000002AEAD1644804F0B1FA4FF4FA7001F00A
:1018100009FD37F916C0614B01ADBCF1240F93E807
:10182000070085E8070000F0CC80A3699A06FCD485
:101830002420206004F058FA0DF10F0815F8010B70
:10184000A3699B06FCD4206004F04EFA4545F5D10F
:10185000A3699906FCD42A20206004F045FAA36904
:101860009A06FCD43220206004F03EFAA56915F0F7
:101870002005FBD14320206004F036FA0D221046EB
:101880004449002D40F0A78037F91630934200F00C
:10189000AA80A3699B06FCD4A2F10D05B5FA85F5D3
:1018A000226011F8012F6D09002AEAD13A4804F0AC
:1018B0005DFA4FF4FA7001F0B5FC394B04AD0FCB73
:1018C00007C537F916C02B80BCF1240F00F09080BB
:1018D000A3699A06FCD42420206004F005FA04AD24
:1018E0000DF11D0815F8010BA3699B06FCD42060BF
:1018F00004F0FAF94545F5D1A3699906FCD42A20EC
:10190000206004F0F1F9A3699A06FCD4322020602B
:1019100004F0EAF9A56915F02005FBD13720206015
:1019200004F0E2F90D2210461A49002D6AD137F968
:10193000163093426DD0A3699B06FCD4A2F10D052D
:10194000B5FA85F5226011F8012F6D09002AECD156
:10195000114804F00BFA4FF4FA7001F063FC4FF4F5
:101960001641204614B0BDE8F04101F053BEA36912
:101970009906FCD40D232360A3699A063FF5FFAEB8
:1019800000E700BF000007400080074000900740CC
:10199000084F0020E4B7011040B3011044B3011018
:1019A00050B3011060B30110A3699B067FF520AF0F
:1019B000A3699B06F8D41BE7A3699B06FCD42060AF
:1019C00013E7A3699906FCD40D232360A3699A0643
:1019D0003FF52BAF2CE7A3699B067FF55DAFA369AD
:1019E0009B06F8D458E7A3699B06FCD4206050E717
:1019F000A3699906FCD40D232360A3699A063FF5D9
:101A000067AF68E7A3699B0698D5A3699B06F9D4DD
:101A100094E7A3699B06FCD420608CE7154804F08A
:101A200027FA012014B0BDE8F0811146204601F0EC
:101A30006FFD0221002000F08BFC0221012000F04C
:101A400087FC2946204601F0E5FD216B0A4801F498
:101A5000404100233A4601633146204601F028FE0A
:101A60000021204601F05CFE2120044900F046FEE2
:101A700021205EE62CB30110001007407D150010F8
:101A80004FF0000C10B40524074B084A03F108017D
:101A9000196083F80DC092E80300986019735C60C8
:101AA0005DF8044B704700BF0C43002090B3011059
:101AB0002DE9F0414FF00008194C1A4F1A4D1B4EFA
:101AC00082B0002005F0A4FD0DF10701A8B10122AC
:101AD000002005F0A9FDF8B19DF8073022880A2BF7
:101AE000337010D022880020511C2180AB5405F0A7
:101AF0008FFD0DF107010028E9D12080D7E9000111
:101B000002B0BDE8F0810021074805F8028013F01B
:101B1000F1FCC7E90001D4E7FF23044A1370E1E7B1
:101B2000264F0020483E0020B44E0020394F0020B0
:101B30002DE9F047012400250E4684B01E237622AD
:101B400000942048ADF80C50FFF7AEFC642001F083
:101B500069FB00941E23762231461A48FFF7A4FC45
:101B6000A0244FF0020A184DDFF85890DFF85C808F
:101B700003AFE3B2762231464846CDE9007AFFF75B
:101B8000E1FCBDF80C00214640BA83B225F8020FF3
:101B90001A464046023404F06BF9AE2CE9D1012418
:101BA00031464A23762200940648FFF77DFC5A23EB
:101BB0007622314600940348FFF776FC002004B0FB
:101BC000BDE8F087A44C00201248002098B3011013
:101BD0002DE9F04F1846144601270D4603268E4B7B
:101BE0008DB01B687622ADF82C301B0CCDE9084077
:101BF0008DF82E3000974A238848FFF755FC0BAC30
:101C0000142001F00FFB2946002376220196009450
:101C10008248FFF797FC9DF82D309DF82C201B0281
:101C200043EA02439DF82E2029461343009776226B
:101C300007937A485A23FFF737FC142001F0F2FA91
:101C4000294600237622019600947448FFF77AFC17
:101C50009DF82D509DF82C20DFF8DC912D0245EAEF
:101C600002459DF82E20B9F80A30B9F80C4015430A
:101C7000A5EB0325EB12240B03FB04F4B9F80800D1
:101C800014F5FA634FEAE47A4AF1000205FB00F02A
:101C90000593069202F0D6F80022614B02F050F84C
:101CA0000646B9F804000F4602F0CCF800224FF0C7
:101CB000824302F045F802460B463046394602F0B0
:101CC00017F802F07DFA0746B9F806008A4605FBC8
:101CD00000F08B4602F0B6F84FF07E53002202F07F
:101CE0002FF80246B9F802009046894602F0AAF899
:101CF00000224C4B02F024F802460B46404649466F
:101D000001F0F6FF02F05CFA06468846DDE90501BF
:101D100002F050F902460B46CDE902230022424B65
:101D200002F0FCF8002875D005FB05F505EB8500F1
:101D300005EB400002F086F800224FF0775301F0E7
:101D4000FFFF02F0A3F80146059B069A181A62EB02
:101D5000E17102F02FF984FB044BCDE902014FEA57
:101D60008B11A001001B41EA946161EB0B0102F0B1
:101D700021F900222D4B01F0E3FF02F021FA301A85
:101D800068EB010906464FEA4B116001001B41EA6E
:101D9000D46161EB0B0102F00DF900224FF07F538B
:101DA00001F0CEFF02F00CFA381A07466AEB010B7D
:101DB0000022DDE902011E4B01F0E8FF089BC3E9A8
:101DC0000001079BA3FB060103FB091102F0F2F8D7
:101DD0000022184B01F0B4FF04460D463846594620
:101DE00002F0E8F802460B462046294601F094FF2F
:101DF00000224FF07C5301F0A3FF00220C4B01F0B6
:101E0000C5FF02460B4600200999C1E900230DB029
:101E1000BDE8F08FC146CBE7A8B30110A44C002069
:101E20000000903F0000F04000409F400000A03FB5
:101E3000000059400000A03E144800202DE9F04168
:101E40000126002384B00DF10F0528226C4800956F
:101E500001960C468DF80F30FFF774FB9DF80F10BC
:101E6000684804F005F89DF80F302822A02B15BF14
:101E70000B2702274FF014084FF00B08334621467A
:101E8000CDE900565E48FFF75DFB9DF80F105E48F8
:101E900003F0EEFF9DF80F1002232822FB2918BF44
:101EA0004746CDE9005621465548FFF74BFB5748BA
:101EB0009DF80F1003F0DCFF9DF80F30322B4FF030
:101EC000030300F0848021462822CDE900564C48C7
:101ED000FFF738FB4E489DF80F1003F0C9FF4D483F
:101EE00003F044FF42F2107001F09CF90027012634
:101EF0000A2003F0F9FE484803F038FF21463E234C
:101F0000282200973E48FFF7E1FA3E232822214687
:101F1000CDE900563A48FFF715FB9DF80F103F48F2
:101F200003F0A6FF21463D23282200973448FFF7FF
:101F3000CDFA142001F076F93D2328222146CDE97F
:101F400000562F48FFF7FEFA9DF80F10344803F0B3
:101F50008FFF0C213D232822009129482146FFF7BD
:101F6000B5FA0A2001F05EF93D2328222146CDE989
:101F700000562348FFF7E6FA9DF80F10294803F0B2
:101F800077FF3B2328222146CDE900561C48FFF766
:101F9000D9FA9DF80F10244803F06AFF80213B23F3
:101FA0000091282221461648FFF790FA3B23282269
:101FB0002146CDE900561248FFF7C4FA9DF80F10EC
:101FC0001A4803F055FF384604B0BDE8F0812822D6
:101FD0002146CDE900560A48FFF7B4FA0C489DF8AF
:101FE0000F1003F045FF9DF80F300F2B7FF477AFF4
:101FF000022F7FF474AF0E4803F0B8FE76E700BFFF
:102000009C4C0020ACB30110C4B30110E8B3011024
:1020100008B4011028B4011040B4011078B40110C4
:1020200098B40110C4B40110ECB4011018B501103B
:1020300034B4011000202DE9F0470E46924699462F
:1020400008244FF0010884B01D4F02ADADF80C001C
:10205000029023460134CDE9005828223146384603
:10206000E4B2FFF76FFA0E2C05F10105F1D1BDF9CD
:10207000080001F0E7FE0022124B01F087FEBDF9D7
:102080000A50CAE90001284601F0DCFE00220D4B8F
:1020900001F07CFE02460B46BDF90C40C9E9002365
:1020A000204601F0CFFE0022064B01F06FFE0246F3
:1020B0000B4600200C99C1E9002304B0BDE8F0876D
:1020C0009C4C00200000594000202DE9F0470E46AE
:1020D000924699460E244FF0010884B01D4F02AD80
:1020E000ADF80C00029023460134CDE900582822B7
:1020F00031463846E4B2FFF725FA142C05F1010504
:10210000F1D1BDF9080001F09DFE0022124B01F053
:1021100017FEBDF90A50CAE90001284601F092FEF7
:1021200000220D4B01F00CFE02460B46BDF90C409F
:10213000C9E90023204601F085FE0022064B01F08C
:10214000FFFD02460B4600200C99C1E9002304B0B4
:10215000BDE8F0879C4C00200000B03F2DE9F04125
:1021600040F201134FF000080C46022584B03B4EAC
:102170006420ADF8083003AFADF80C8001F052F8E0
:10218000374803F0F3FD43462146CDE90075402270
:102190003046ADF80C80FFF7ADF94FF4FE622146F2
:1021A0000097ADF80C2002AF012340223046019584
:1021B000FFF7A0F94346214640223046CDE900759D
:1021C000FFF7C0F9BDF808309DF809205BBA9DF80B
:1021D00008109BB2234803F04BFE21460123402206
:1021E0003046CDE90075FFF7ADF9BDF808309DF830
:1021F00009205BBA9DF808109BB21B4803F038FE1B
:10220000642001F00FF821463E2340223046CDE9FC
:102210000075FFF797F9BDF808309DF809205BBA03
:102220009DF808109BB2114803F022FE21463F237F
:1022300040223046CDE90075FFF784F9BDF808303B
:102240009DF809205BBA9DF808109BB2084803F07E
:102250000FFE404604B0BDE8F08100BFA04C002056
:10226000D4AF01104CB5011070B5011098B5011034
:10227000BCB50110000000002DE9F0474FF0030A43
:10228000002484B02C4E03AF90469946402200971C
:1022900005233046CDF804A00D46ADF80C408DF86E
:1022A0000E40ADF80840FFF74DF99DF80D009DF880
:1022B0000C30000240EA03409DF80E30184300093C
:1022C00001F0C0FD18A3D3E9002301F039FD40223D
:1022D000C9E9000107232946CDE9007A3046FFF716
:1022E00031F99DF80D009DF80C30000240EA0340E2
:1022F0009DF80E3002271843000901F0A3FD0CA33E
:10230000D3E9002301F01CFD02ABC8E90001402223
:102310000093294630460B230197FFF713F9204617
:1023200004B0BDE8F08700BF00000000006A68400C
:102330000000000000886340A04C0020012070478E
:10234000024B00280CBF1846002070479028002040
:1023500010B44FF480740C4B53F8202003EB80032F
:10236000C00082F0400200F1804003F5805C02F082
:10237000C00200F5203003F54053CCF80020416046
:102380001C605DF8044B70470480034010B4084C97
:10239000C90041EA820154F8202004EB8003514037
:1023A00003F5805301F00C015DF8044B1960704790
:1023B00004800340054B53F8202003EB8003514079
:1023C00001F0010103F58053196070470480034058
:1023D000064B53F8202003EB800382EA011202F03F
:1023E000300203F580531A60704700BF0480034039
:1023F00030B44FF0000343EC440043EC40000525AB
:102400004FF480740B4BC20053F8201003EB800094
:1024100081F0400102F1804303F5203301F0C00256
:1024200000F5805100F540500A605D60046030BCEA
:10243000704700BF0480034010B44FF480711F2424
:102440000C4B53F8202003EB8003C00082F04002C5
:1024500000F1804003F5805C02F0C00200F52030FE
:1024600003F54053CCF8002044605DF8044B19603C
:10247000704700BF048003400FB400B583B0049CD4
:10248000074803F073FC3CB105A92046019103F015
:1024900045FA044803F06AFC012003F057FA00BF34
:1024A000E0B5011058B20110EFF3108072B6064B80
:1024B000D3E8CF1F01220029FAD1C3E8412F002918
:1024C000F6D1BFF35F8F70475F4300200023034ABC
:1024D000C2E88F3F80F31088704700BF5F43002041
:1024E00070B58646EFF3108572B6124CD4E8CF6F04
:1024F0000120002EFAD1C4E8460F002EF6D1BFF31A
:102500005F8F4FF0010CC80801F007030CFA03F3CA
:102510001EF800C01CEA030608D14CEA030C0EF8B2
:1025200000C0C4E88F6F85F3108870BD1046FFF7B8
:10253000A3FF00BF5F430020F8B5EFF3108572B62C
:10254000234CD4E8CF7F0126002FFAD1C4E8476F8F
:10255000002FF6D1BFF35F8F9A4227D80126D70804
:1025600010F807E002F0070C06FA0CFC1EEA0C0F4C
:1025700000EBD2070DD125E04FEAD20E10F80EE0A5
:1025800002F0070C06FA0CFC1EEA0C0F00EBD20757
:1025900018D001329342EFD24FF0FF300023C4E84D
:1025A0008F3F85F31088984207DBF8BD0023C4E80D
:1025B0008F3F85F310884FF0FF300029F5D0069843
:1025C000FFF75AFF4EEA0C0E104687F800E0E5E7E9
:1025D0005F430020044A1078431CDBB2182B28BF4D
:1025E00010231370704700BFBC2B002010B5054CA2
:1025F00082B001461F23182200940348FFF79CFF76
:1026000002B010BDF0B501102C4800204FF0E022C0
:10261000936843F000539360704700BF0021044B60
:1026200003F12002C3E88F1F01339342FAD17047B0
:10263000544300204FF0E0234FF08032C3F80024D1
:10264000C3F80424C3F80824C3F80C24C3F81024E6
:10265000C3F81424C3F81824C3F81C24C3F8202496
:10266000C3F82424C3F82824C3F82C24C3F8302446
:10267000704700BF012300F01F029340400941B1A1
:10268000800000F1604000F56140C0F880310360D7
:102690007047024A203042F82030704700E100E0E5
:1026A0000123064A410952F8212000F01F0083400F
:1026B000134214BF01200020704700BF00E100E07A
:1026C00001224309034900F01F008240403341F8D2
:1026D0002320704700E100E0064B10309B6853F860
:1026E000200028B1044BC01A5F288CBF00200120B5
:1026F000704700BF00ED00E0C02B0020F8B50D468C
:10270000EFF3108772B6124ED6E8CF2F0123002ABE
:10271000FAD1C6E8423F002AF6D1BFF35F8F0D4BD6
:1027200000F110049B680C4A53F82430934203D004
:10273000994201D001F0BAF9064B9B6843F8245046
:10274000BFF35F8F0023C6E88F3F87F31088F8BD83
:102750005D43002000ED00E01D0100102DE9F04F69
:1027600081468B46164683B0EFF3108372B6DFF8CE
:10277000D0A10093DAE8CF1F01230029FAD1CAE8DB
:10278000413F0029F6D1BFF35F8F664B93F90040BC
:10279000002CC0F2A080644D04EB440705EB8708D1
:1027A00098F8061009F110091970604BBF009B687A
:1027B00053F829006300411B5F292FD95C498842E7
:1027C00040F0A4801C445B4B02372F44043BDB1BCE
:1027D000C3F34A036FEAC3434FF421416FEAD34383
:1027E00025F8241005EB840463804BF60153A38085
:1027F000FF2348F00100E671C4F808B0A3714B4B09
:102800009B6843F82900BFF35F8F0023CAE88F3F1E
:10281000009B83F3108803B0BDE8F08F20F0010E19
:102820009EF80710B1422ED84FF42143EB53414B91
:10283000B91C2944043B04375B1A2F44AEF1040150
:102840003D4CC91BC1F34A012143A8F80410C3F34E
:102850004A033A492343A8F802304AF6AA207346AD
:102860005B1B5B415843000D88F8076088F8060041
:10287000C8F808B048F00100CEF80010BFE7D179E1
:10288000B1422ED996469EF906C00CEB4C02BCF123
:10289000000F05EB8202F2DA4BF601510EF1040251
:1028A000A8F10407BF1AC7F34A076FEAC7476FEAE0
:1028B000D7478EF8064003EB0408204C05EB88034D
:1028C000AEF8047045F82840998083F806C0DE71A0
:1028D000C3F808B093E701F0E9F8124B93F9004010
:1028E00059E7724632F8041F490514D449150231DC
:1028F00002EB410101916FF00701C91B019F491BC8
:102900003944C1F34A0141F46041C9E7019301F040
:10291000CDF8019B56E701F5FF1101F5FF511F317D
:10292000E4E700BF304F0020C02B002000ED00E0A6
:102930001D010010202C002000E0FFFF014880470F
:102940005D430020F0B5EFF30585EDB2EFF3108C99
:1029500072B63249D1E8CF2F0123002AFAD1C1E85B
:10296000423F002AF6D1BFF35F8F2D4E40F0010E9B
:10297000B4684AF6AA2354F825702A4A0446A41AD1
:10298000644163431B0D77455BB22BD092F906403F
:102990009C422CD092F912409C4235D092F91E40B4
:1029A0009C4233D092F92A409C4231D092F9364071
:1029B0009C422FD092F942409C4223D092F94E4043
:1029C0009C4229D092F95A409C4208BF07240FD05C
:1029D000154A0024157813708571C1E88F4F8CF368
:1029E0001088F0BDB268114C42F82540F0E7002491
:1029F00004EB440402EB8402FF2494714BF601546F
:102A00009480E5E70524F3E70124F1E70224EFE7EA
:102A10000324EDE70424EBE70624E9E75D43002007
:102A200000ED00E0C02B0020304F00201D01001001
:102A300010B5074C82B001460523002200940548DA
:102A4000FFF77AFD0028A8BFC0F1330002B010BD27
:102A50000CB601103B4F002070B504460E461546DB
:102A6000FFF7B8FD0146204600F006F8A680E58095
:102A7000BFF35F8F70BD00BF014B0B440360704715
:102A80005443002070B5104C104DAC420ED2FF26BE
:102A9000236863B1FFF79EFD01462046FFF7ECFF78
:102AA000A680BFF35F8F0834AC42F1D370BDFFF74F
:102AB00091FD01462046FFF7DFFF2671BFF35F8FD0
:102AC0000834AC42E4D370BD003400202034002030
:102AD00010B50446FFF77EFD01462046FFF7CCFF08
:102AE000FF232371BFF35F8F10BD00BF10B50446F5
:102AF0000120FFF77BFD034B03442360BFF35F8F8F
:102B000010BD00BF54430020024B0B440360BFF3D1
:102B10005F8F7047544300200D4B1A68EFF310810C
:102B200072B6D2E8CFCF0120BCF1000FF9D1C2E8D4
:102B30004C0FBCF1000FF4D1BFF35F8F00221B6874
:102B4000C3E88F2F81F3108840BF00200021704719
:102B5000F44E0020000000002DE9F04F2DED028B17
:102B600085B0EFF30583DBB2103B9A0818BF012252
:102B70004FF0010103F0030018BFAB4DAB4B08BF92
:102B8000AB4D00EB820201FA00FB53F8226005F521
:102B900041539FEDA38B0190C3F804B0CDF800B072
:102BA0002AE0B388180440F18C80B379002B40F000
:102BB000D580B6F908100029C0F21581736901EBC0
:102BC000410103EBC103D3E90247B7F1FF3F08BF5F
:102BD000B4F1FF3F09D0019B05EB8301AB6A0A69A1
:102BE000D21AE31A934238BF0C61284600F02AFC3F
:102BF000A042B941C0F2F780B6F90840009B002C12
:102C0000EB63CEDBD6F8149004EB440A284609EBBC
:102C1000CA07D7E902B800F015FC584571EB080166
:102C2000BFDBB8F1000FC0F2C180D7E90431814A9F
:102C3000934200F0EA807A88B6F9080092B242EA3C
:102C40000040984702460B4652EA030100F0AE806E
:102C5000002B80F2CE80BBEB020B68EB030839F946
:102C60003A30C7E902B8002B9BDB716903EB4302E2
:102C700001EBC202D2E90270BB4578EB000C4FEACF
:102C800043028EDBB4462CF8083F0BE031F93230BA
:102C9000F446002B0DDB03EB430001EBC0005A00B0
:102CA000D0E90270BB451A4478EB000001EBC20E7C
:102CB000ECDA29F83A30ACF80040B38818043FF554
:102CC00074AF3369EFF3108272B6D3E8CF0F0121EE
:102CD0000028FAD1C3E8401F0028F6D1BFF35F8F68
:102CE0004FF6FF74B0880023316900B2B480C1E8A8
:102CF0008F3F82F310889842FFF657AF0746A946E8
:102D0000746906F1080807EB470E04EBCE03D3E91C
:102D10000250B6F90830C446002BA8BFB34605DA06
:102D20000FE034F93A309446002B09DB03EB430AF9
:102D300004EBCA02D2E90261B54270EB0101F0DA9C
:102D40005E46ACF8007034F93E7024F83E30002F37
:102D5000D9DAB3794D46002B3FF42BAF0023B37182
:102D6000B6F9083006F10808591C3CD019467769B5
:102D700003E080465A1C3FF41EAF03EB430207EB0F
:102D8000C200B0F802C01C461CF4004F9E4637F942
:102D90003230EED08C4280ED028B05D0A8F80030A6
:102DA000318927F8321034817146E3E739F83A3037
:102DB00033813369EFF3108272B6D3E8CF0F01216C
:102DC0000028FAD1C3E8401F0028F6D1BFF35F8F77
:102DD0007388316929F83A3000237480C1E88F3F45
:102DE00082F31088DDE640BF05B0BDEC028BBDE884
:102DF000F08F2846CDE9022300F024FB029A039BC2
:102E000010EB020B43EB010829E708460B6902911E
:102E100098470028CAD00299D1E9002314E700BFDF
:102E2000FFFFFFFFFFFFFFFF00800B40C04C0020B3
:102E300000000B40592B00102DE9F84F364C256946
:102E40002DB1BDE8F84F0A213448FFF715BEDFF871
:102E5000E4800321404600F0E3FA0326C4F80C8026
:102E6000FFF7B8FB4FF0504C2D4B26700344236105
:102E7000DCF800300F216370636961801D834FF0BF
:102E80000405A3F878504FF00505A3F890504FF0D3
:102E90000605A3F8A8504FF007050E214FF6FF7264
:102EA00008274FF00A0EA3F8C0504FF001094FF069
:102EB0000C0C4FF0020B4FF0090A0D204FF00B05E0
:102EC000A3F868111749A280A3F808E1A160A3F84C
:102ED00048B0A3F8F0A0A3F82051A3F838C1A3F894
:102EE0005001A3F83090A3F86060A3F8D8701A805E
:102EF0000D4B3046C8F820700C49DC60FFF7FEFB34
:102F000049463046FFF7B6FB094B0A211F640348C8
:102F1000BDE8F84FFFF7B0BD382C0020F44E00207C
:102F200054430020FFFF1000C04C0020592B00101C
:102F300000200B4000000B4000487047382C002058
:102F4000F8B59DF82070044616461D4637B900F0C6
:102F500081FA864265EB010100295CDB2369EFF30E
:102F6000108772B6D3E8CF1F01220029FAD1C3E837
:102F7000412F0029F6D1BFF35F8FB4F902C0636916
:102F80000CEB4C01BCF1000F4FEAC10203EBC10195
:102F900038DB985A4FF0000E60802069C0E88FEF50
:102FA00087F310880698C1E90265086107984861AF
:102FB00048880130C0F30E00012838BF0120488046
:102FC00040EA0C402169EFF3108572B6D1E8CF7F5B
:102FD0000126002FFAD1C1E8476F002FF6D1BFF3C9
:102FE0005F8FA1889952A4F804C02369C3E88FEFCA
:102FF00085F310880122E368217803F501538A40A4
:103000005A60F8BD00232269C2E88F3F87F3108819
:103010004FF0FF30F8BD3846F8BD00BF0146F0B5AF
:103020000069EFF3108772B6D0E8CF5F0124002D5E
:10303000FAD1C0E8454F002DF6D1BFF35F8FB1F94B
:1030400002E04C690EEB4E0CBEF1000F4FEACC05CE
:1030500004EBCC0C3DDB605B002648800869C0E8CF
:103060008F6F87F31088BCF80200CCE9022301308F
:10307000C0F30E00012838BF0120059BACF8020008
:10308000CCF81030069B40EA0E40CCF814300B69A7
:10309000EFF3108272B6D3E8CFCF0127BCF1000F57
:1030A000F9D1C3E84C7FBCF1000FF4D1BFF35F8FBF
:1030B0008B886353A1F804E00B69C3E88F6F82F338
:1030C00010880122CB68097803F501538A405A60C1
:1030D000F0BD00230A69C2E88F3F87F310884FF0E4
:1030E000FF30F0BD03464089B0EB214F37DD586912
:1030F0000A1402EB420210B500EBC2001C69EFF3A8
:10310000108C72B6D4E8CFEF0122BEF1000FF9D1D6
:10311000C4E84E2FBEF1000FF4D1BFF35F8F428899
:1031200089B292B28A4207D000221B69C3E88F2F6E
:103130008CF31088002010BD42F40042428001212F
:10314000002218699971C0E88F2F8CF310881C78C1
:10315000DA68084602F50153A140596010BD00200D
:10316000704700BF407870472DE9F041861F41F15C
:10317000FF35B04271EB050338BF002682B038BF7F
:10318000354604460F4600F065F9301A65EB010339
:10319000012873F1000306DA2046394602B0BDE883
:1031A000F04100F093B900F055F9864265EB01015A
:1031B00000290ADB0021174B3246009316482B46A4
:1031C0000191FFF72BFF0028E6DB4FF0000C1348BE
:1031D000134A436A9D4204D8816AB142DCD29D42BF
:1031E000DAD11368EFF3108172B6D3E8CF8F5FF0B6
:1031F000010EB8F1000FF8D1C3E848EFB8F1000FA5
:10320000F3D1BFF35F8F1368C3E88FCF81F31088CA
:1032100020BFDEE7192B0010382C002000000B40E7
:10322000F44E002010B5044600F014F94FF47A7300
:103230004FF0FF3C6FF00042E4FB0301BDE810409B
:10324000844572EB01033CBF60461146FFF78CBF1B
:10325000F0B506460D4683B0EFF30584E4B2002CCA
:1032600035D1244F3A78F96804328B6A51F822201C
:10327000D21AC31A934207D320BF1F4B586AA842E1
:103280001FD2002003B0F0BD00F0E4F8864265EBE9
:103290000101002911DB194B3846CDE900343246D3
:1032A0002B46FFF7BBFE011E07DD134B5A6AAA42ED
:1032B00019D220BF0F48FFF715FF0F4B586AA842DD
:1032C000DFD39B6A9E4209D8012003B0F0BD0A4BB0
:1032D000586A8842D5D39B6AB342F5D2401B18BFC7
:1032E000012003B0F0BD9B6A9E42E3D9AA42E1D11E
:1032F000DFE700BF382C002000000B40192B001026
:103300002DE9F0410446DDE9071552EA030070D0CB
:10331000002B16461F4671DB0698C5E9002328617D
:10332000AC60696100F096F84FF0FF326FF0004337
:10333000801947EB0107824273EB07013CBF1F4630
:1033400010462369EFF3108872B6D3E8CF1F01222D
:103350000029FAD1C3E8412F0029F6D1BFF35F8FCE
:10336000B4F90260616906EB4603002E4FEAC30C14
:1033700001EBC30346DB31F80C204FF0000E6280F6
:103380002269C2E88FEF88F310885A88C3E90207E0
:103390000132C2F30E02012A38BF01221F485A80AF
:1033A0005D61186142EA06422369EFF3108072B64C
:1033B000D3E8CF8F0127B8F1000FF9D1C3E8487FD8
:1033C000B8F1000FF4D1BFF35F8FA38821F80C3060
:1033D000A6802369C3E88FEF80F31088012021784D
:1033E000E36800FA01F103F501535960EA60BDE8B2
:1033F000F0810126002732463B468DE7564263EBBB
:10340000430789E700202369C3E88F0F88F31088FA
:103410004FF0FF32EA60BDE8F08100BF592B001089
:1034200010B4054B054C064AA04214BF1846581C60
:103430005DF8044BFFF754B83048002000800B4083
:1034400028B601100346416A0A46986A596A8A42B8
:10345000FAD17047034B596A0A46986A596A9142F1
:10346000FAD1704700000B4010B4174A536A9C46CB
:10347000946A536A6345FAD1001959414FF000022A
:1034800028BF01220346CAB10F4B596A4B1C08BF23
:103490000B4608D04FF0FF310B460B48426A8A4278
:1034A000FCD38A4207D1084A02E0506A884202D11E
:1034B000906A9842F9D35DF8044B7047024A526A09
:1034C0009142EAD8EDE700BF00000B40074A536A7B
:1034D0009942FCD8994207D1044B02E05A6A9142C2
:1034E00002D19A6A8242F9D3704700BF00000B40B4
:1034F00010B5002314464FF47A7217F099FB034B72
:10350000C4E9000103FB02F2A26010BD40420F00BB
:10351000F8B5054606200E4600F096F9002842D080
:10352000354A3648954214BF4FF080624FF0006232
:10353000334B344902601A608C6832EA0404FBD1D0
:103540002D4B4FF48071EB1AB3FA83F32E4A5B09CB
:10355000062022F8131000F077F9C300B3FBF6F34E
:103560000133DA0920D1402601216962AA622F6B5A
:10357000FB0722D42B46002253F82C1F062003F50C
:10358000805422602F6300F05FF940F20131032282
:103590008000B0FBF6F0EB6A83F0700303F07E036B
:1035A00023602963AA64F8BD4FF6FE718A421BD9D5
:1035B00022464FF6FF71154ED7E740F2013205F56E
:1035C00040531A636B6AAC6A062004EB831400F064
:1035D0003BF90F4BA402A3FB0023DB0A0021B4FB41
:1035E000F3F0FFF741FFC5E7C3F34503114603EBD3
:1035F00082161A46B9E700BF00800740002002404B
:103600000030024000000240084F0020C0FF3F0091
:10361000757B2B8FF8B5044606200D4600F014F993
:10362000C300B3FBF5F30133DA0908D04FF6FE719E
:103630008A421AD900224FF6FF711B4D01E0402546
:1036400001216162A262266BF30715D42346002292
:1036500053F82C1F062003F580531A60266300F0F0
:10366000F3F88000B0FBF5F0F8BDC3F34503114655
:1036700003EB82151A46E4E740F2013204F54053A9
:103680001A63636AA76A062007EB831700F0DCF869
:10369000064BBF02A3FB0030C00A0021B7FBF0F0CD
:1036A000FFF7E2FED2E700BFC0FF3F00757B2B8F24
:1036B000013A0539D200F8B5054642EA411443B152
:1036C000A3F10103B3FA83F35B0944EA830343F0F4
:1036D00002042E6BF3070AD42B4653F82C2F6240BA
:1036E00002F06E0203F580531A602E63F8BD40F2BB
:1036F000013205F540531A636B6AAF6A062007EB87
:10370000831700F0A1F8054BBF02A3FB0030C00AED
:103710000021B7FBF0F0FFF7A7FEDDE7757B2B8FED
:10372000F8B5066B0546F3074FEA01140AD42B4699
:1037300053F82C2F544004F0100403F580531C6000
:103740002E63F8BD40F2013200F540531A636B6AF4
:10375000AF6A062007EB831700F076F8054BBF022F
:10376000A3FB0030C00A0021B7FBF0F0FFF77CFE9E
:10377000DDE700BF757B2B8F00EB400C4FEA8C0C14
:103780000CF1804C0CF5803CF0B51646DCF80420BA
:10379000051FB2F5803F38BF4FF48032EDB238BF1D
:1037A000CCF80420012D2AD94FF40067254C0CF5E4
:1037B0004052176054F82020B2B9DCF80020012DE7
:1037C00082EA461202F0E0020CF5805632602AD9F5
:1037D0004FF4006144F820304FF480330CF5005270
:1037E0001160CCF80430F0BD6769B7FBF2FE0EF152
:1037F000010E0EEB4E0EBEF1030EFCD2DDE70129E9
:10380000D2D103240CF540521460DCF80820D20712
:10381000FBD5DCF800200B4C82EA461202F0E002F5
:103820000CF5805632600122DCF800504D4005F066
:103830000305356002FA01F1DCF808200A42FBD0EA
:10384000C6E700BF38480020014B53F820007047FE
:103850003848002030B4114AD2F8A43013F48073F1
:10386000FAD10F490F4C09690A25A4FB01414FF019
:10387000FF348909C2F88C100849C2F89C50C2F87C
:103880009030C2F89440C2F8A000D1F8A430DB0612
:10389000FBD530BCD1F8A8004009704700000140BA
:1038A00038480020D34D621070B4039D04682D0386
:1038B00045EA03451B4B002CB3FBF1F3B2FBF3F6D7
:1038C0001FDB194A194B904214BF4FF480424FF44A
:1038D0000042174C1A6003F580531A60A36832EA5D
:1038E0000303FBD1212200F54053043301608660BD
:1038F0001A600268002AFCDA0822C5601A6070BCEF
:103900007047036803F03F038B42DAD18368C3F347
:103910000B03B342D5D1C36803F4EE23AB42D0D13D
:10392000EDE700BF001BB70000800540002002400B
:103930000000024030B44FF080441C4B1C60E0B1EA
:103940001B4CA3F54053DC611A4C40F0010044408D
:103950001C62596298624FF080454FF0E061134B52
:103960001548164C1D60846019604AB930BC4FF090
:103970000042A3F580531A607047114BD861EAE703
:103980004FF47A7303FB02F2B2F1807F2ABF6FF02B
:103990007F4313461A464FF080410A4C0848236083
:1039A000094B426030BC1960704700BF00B00D4049
:1039B000D3C007B02D3FF84F00A00140F3FFFF0137
:1039C00000800D40B04C002000A00D40012300EB12
:1039D0004000800000F1804000F5841041600360E9
:1039E000704700BF002370B5DB8A04460D460022F5
:1039F00042E800F2520254BF1021042144F2522046
:103A0000984786462B462246F446BDE870400A2178
:103A10004FF48170604700BF0023DB8A002242E838
:103A200000F2520201D4102118470421184700BFA8
:103A300008B503460846191E02DB1AB140F03000F3
:103A4000FFF7D0FF40F02000FAE700BF034AD2F8AA
:103A50002838002BFBD0BFF35F8F704700000E406B
:103A60000021044B044ABFF35F8F43F8041B9342C9
:103A7000F9D170470C080E402C080E4010B42F20CE
:103A80004FF42A64054A064B06491460D060196059
:103A90005368002BFCDA5DF8044B7047008004404B
:103AA00000A0044000B0FA00704700BF08B501480C
:103AB000FEF7E2FC4CB6011038B5054C054DAC42A2
:103AC00004D254F8043B9847AC42FAD338BD00BF47
:103AD000B0AC0110F0AC011038B5054C054DAC424E
:103AE00004D254F8043B9847AC42FAD338BD00BF27
:103AF000DCAC0110F0AC011010B40748074C084BC7
:103B0000084A094904601A608B6832EA0303FBD152
:103B10005DF8044B704700BF002002407F3BEFEF91
:103B200000300240F6FFF30300000240044BDB6C60
:103B3000B3F5004F03D14FF48022024BDA64704793
:103B400000001150002011504FF0E022044BD2F839
:103B5000881D0B43C2F8883D10EE3004704700BF4B
:103B6000030330006FF06041044B054A196093680D
:103B7000DB4333F06043FAD1704700BF00300240AE
:103B80000000024010B545F25320FFF745FFBDE8A5
:103B9000104003460420184710B545F25320FFF7A4
:103BA0003BFFBDE81040034601201847FEF736BD35
:103BB00010B5054B054C4FF488721846A16813F0F8
:103BC00009F9A06010BD00BF0000002000ED00E07A
:103BD000002370B52B4C82B0C4F88430FFF74EFF41
:103BE0000122294BDA63636C012BFCD10321264AA5
:103BF000244B11639C6B012CFCD102260525214628
:103C00000523224A22480096FFF74EFE21462B4606
:103C1000204A21480095FFF747FE00220420314644
:103C20001E4BFFF7A9FD2146284600221C4BFFF73B
:103C3000A3FD0022082011461A4BFFF79DFD00222C
:103C400009201146174BFFF797FD00220620114669
:103C5000134BFFF791FD0022114B07201146FFF790
:103C60008BFD0420FFF7F0FD00240F4BA3FB003574
:103C7000AD0CE0B229460134FFF7A8FE062CF8D1BE
:103C800002B070BD0000014000300140002F6859B3
:103C900000000540008C864700800540001BB700EF
:103CA00080D1F008006CDC0283DE1B4386B003B4D5
:103CB00051FC0804CDE9020151FC0904CDE90401DD
:103CC00051EC0A04CDE9060103BCF047BDE8005001
:103CD0004EEC00C4BDE800504EEC01C4BDE80050FD
:103CE0004EEC02C400BD000000B5FFF7DFFF02E0AC
:103CF00010FE30F4F8D441EC100443EC112400EE33
:103D0000010410EE010480EE200451EC1004704711
:103D100000B5FFF7CBFF02E010FE30F4F8D441EC21
:103D2000100443EC112400EE010410EE210480EE97
:103D3000200451EC3004704700B5FFF7B7FF02E0F4
:103D400010FE30F4F8D410B541EC100443EC11240B
:103D500051EC040453EC0524A0FB024C5FF0000E70
:103D6000E0FB03CEE1FB02CE4CEC20440024E1FB5F
:103D700003E444EC30E480EE200451EC5004BDE850
:103D80001040704700B5FFF791FF02E010FE30F4DD
:103D9000F8D441EC100443EC112451EC2104A0FBB5
:103DA00001126FEA820252FB100052FB12F252FB28
:103DB0001000A0EBD07C53EC04245CFB13F153EC1B
:103DC0001524A1FB022001FB030053EC4424A2EBC9
:103DD000000050FB1CF24FEA111312EB017043EB91
:103DE000E27140EA515020EA915020F0070053EC74
:103DF0007524A0FB023C53EC752400FB03CC01FBB3
:103E000002CC53EC0424ACEB824C40EA5C70A0F191
:103E1000010041EC400480EE200451EC7004704736
:103E200000B5FFF743FF02E010FE30F4F8D441EC98
:103E3000100480EE220410EEB204704700B5FFF7C4
:103E400035FF02E010FE30F4F8D440EC700400EED0
:103E5000010410EE210480EE200451EC3004704780
:103E600000B5FFF723FF02E010FE30F4F8D440EC79
:103E7000600400EE010410EE210480EE200451ECF9
:103E80003004704700B5FFF711FF02E010FE30F478
:103E9000F8D441EC800400EE010410EE010480EE41
:103EA000400410EE1304704700B5FFF7FFFE02E078
:103EB00010FE30F4F8D441EC800400EE010410EE62
:103EC000010480EE400410EE3304704700B5FFF7A4
:103ED000EDFE02E010FE30F4F8D441EC100443ECA7
:103EE000112400EE010410EE3004C0F3007070479E
:103EF00000B5FFF7DBFE02E010FE30F4F8D441EC31
:103F0000100443EC112400EE010410EE3004C0F361
:103F10008070704700B5FFF7C9FE02E010FE30F474
:103F2000F8D443EC102441EC110400EE010410EE2F
:103F300030F48CBF01200020704700BF00B5FFF7B0
:103F4000B5FE02E010FE30F4F8D443EC102441EC4E
:103F5000110400EE010410EE30F42CBF012000200B
:103F6000704700BF00B5FFF7A1FE02E010FE30F47D
:103F7000F8D441EC100443EC112400EE010410EEDF
:103F800030F42CBF01200020704700BF00B5FFF7C0
:103F90008DFE02E010FE30F4F8D441EC100443EC46
:103FA000112400EE010410EE30F48CBF012000203B
:103FB000704700BF0022002950DA404261EB410106
:103FC000C9B1B1FA81F30B3B17D4D3F1200C30FA0D
:103FD0000CFC9840994051EA0C011A44524202F2FA
:103FE000324201EB025141F0004140F2FE739A422D
:103FF00038BF704721E011467EE003F1210310FA3B
:1040000003FCA3F1010301FA03FCC3F1200320FA2E
:1040100003F021FA03F140EA0C00A3EB020202F2E2
:10402000324214D050F1000041EB025141F0004106
:1040300040F2FE739A4238BF70474FF00001A8BFAC
:10404000C7F6F0714FF00000704700217047EBD3C6
:1040500050F1000020F00100E6E70022B9B1B1FA0A
:1040600081F30B3B16D4D3F1200C30FA0CFC9840B2
:10407000994051EA0C011A44524202F2324201EBD9
:10408000025140F2FE739A4238BF704720E0114659
:1040900000F066B803F1210310FA03FCA3F1010359
:1040A00001FA03FCC3F1200320FA03F021FA03F123
:1040B00040EA0C00A3EB020202F2324212D050F1AD
:1040C000000041EB025140F2FE739A4238BF704744
:1040D0004FF00001A8BFC7F6F0714FF00000704725
:1040E00000217047EDD350F1000020F00100E8E717
:1040F000002880F235804042B0FA80F30B3B11D4A7
:10410000984001EB0302524202F2124200EB0251CC
:1041100041F000414FF0000040F2FE739A4238BF78
:10412000704713E0C3F1000330FA03FCC3F120022F
:104130009040A3EB010202F212420CEB025141F05B
:10414000004140F2FE739A4238BF70474FF0004181
:10415000A8BFCFF6F0714FF0000070470021704704
:1041600060B3B0FA80F30B3B0FD4984001EB03022D
:10417000524202F2124200EB02514FF0000040F2B4
:10418000FE739A4238BF704710E05B4230FA03FC7E
:10419000C3F120029040A3EB010202F212420CEBA9
:1041A000025140F2FE739A4238BF70474FF000014F
:1041B000A8BFC7F6F0714FF00000704700217047AC
:1041C0000022A2F232425FEA215CACF10103A1EBD2
:1041D00003515B0513F5800F32D212EB535210D40A
:1041E0000B2A36DA9140D2F1200330FA03F3194357
:1041F0009040BCF1000FA8BF7047404261EB410105
:10420000704720320EDD01FA02F3D2F12002D140D4
:10421000D0401843BCF1000FA8BF7047404261EB8B
:1042200041017047524282F3050231FA02F0002147
:10423000BCF1000FA8BF7047404261EB41017047DD
:1042400002D000200021704750EA013118BF4FF022
:10425000000C6FF0004101EBDC716FEAEC7070470D
:1042600038B50446094816F0F7FC204612F0A2FDC6
:104270000546064816F0D8FC2DB1054B2C449C424F
:1042800001D8284638BD0348FEF7F6F80034002070
:104290000000082058B6011038B50446054D2846E0
:1042A00016F0DAFC204612F08DFD2846BDE83840B5
:1042B00016F0BABC00340020FFF7EEBF9A4238BFB8
:1042C00088547047704700BF2DE9F04F83B099467E
:1042D000DDE90DAB0F9B884611469A07074616D1BC
:1042E000DA453AD20C460D46ABEB0A060E4422469E
:1042F0004B46414620200134B847B442F7D1294605
:10430000BAF1000F08D1204603B0BDE8F08F0C468B
:10431000BAF1000F10D00E4655460C9B2E449A441D
:104320000191721B4B46013D41461AF8010D34467E
:10433000B847002DF5D101990F9B9B07E3D5651A6E
:10434000AB45E0D922464B46414620200135B847CF
:104350005D4504F10104F5D3D5E7BAF1000FDAD1D8
:104360000C46D0E72DE9F04F0F9FDDF824E017F061
:10437000020F0A9C9DF82C900E9DDDE90C8629D138
:10438000002D6FD1B44225D2202C07F0010B00F094
:10439000128104F1FF3C4FF0300AF44401E0202C7C
:1043A0007AD00134A6420CF801AFF8D8BBF1000F67
:1043B00010D0AC420ED2202C74D004F1FF3C4FF050
:1043C000300AF44401E0202C29D00134AC420CF82E
:1043D00001AFF8D117F0100F3AD017F4806F28D141
:1043E0001CBBB8F1100F00F0CA80B8F1020F00F04A
:1043F000D48030248EF800400124B9F1000F67D139
:104400007E0740F1AA802B260EF804600134CDE926
:104410000B57CDE909E4BDE8F04FFFF755BFFC06A7
:1044200040F189807C0535D42024A6426AD0AC4274
:1044300068D0B8F1100F00F08780B8F1020F5AD0A1
:10444000202CE4D0264601344FF0300C0EF806C084
:10445000202CD2D1CDE90B57CDE909E4BDE8F04FCE
:10446000FFF732BF17F0010B3ED0B9F1000F47D173
:1044700017F00C0F44D1B4429BD2202C89D1202DAF
:1044800010D8FC0657D57C0555D4202E00F0B980F5
:10449000202D10D02024CCE7BBF1000F00F0A58028
:1044A000202DBCD9FC0646D57C0544D4202E00F036
:1044B000A880202D3FD12C461F26B8F1100F7FD0A9
:1044C000B8F1020FC0D14FF0620C0EF806C0B7E78A
:1044D0002D260EF804600134CDE90B57CDE909E42F
:1044E000BDE8F04FFFF7F0BEB442BFF473AF202C2D
:1044F0007FF44FAFD6E7202C89D026460134E2E77F
:10450000013DB8E7661ED8D1B8F1100F64D0B8F1FC
:10451000020F7FF46EAF62268EF8006030264446AC
:104520008EF80160B9F1000F3FF46AAFD0E7B8F13F
:10453000100F7FF46CAF2024CDE90B57CDE909E4CF
:10454000BDE8F04FFFF7C0BEBE060ED4202CF2D05F
:1045500078260EF80460013472E73E077FF557AF06
:1045600020260EF80460013451E7202CE3D04FF0F0
:10457000580C0EEB040686F800C0013460E7BE0656
:1045800017D558248EF8004030248EF801400224BC
:10459000B9F1000F3FF434AF9AE762248EF800407F
:1045A00030248EF801400224B9F1000F3FF428AF07
:1045B0008EE77824F2E7BBF1000F7FF462AF71E77A
:1045C00017F0200F0CBF4FF0780C4FF0580CA61EC0
:1045D0000EF806C0013C35E7BC06EAD558248EF833
:1045E000004030248EF80140DDE717F0100F3FF453
:1045F0000EAF17F4806F9AD1202E7FF418AF1F26CC
:104600005BE734461F2658E700B9704701F06CBBE2
:1046100010B1D1E900311847704700BF0000000019
:104620002DE9F04F9FB09DED287BDDE92AA558ECE0
:10463000177B83461E460D91109243463A463846F4
:1046400041468DED087B2C9CFFF744FC002840F090
:10465000D880384641464FF0FF32754BFFF79AFC41
:10466000002840F0CE80384641464FF0FF326FF4CC
:104670008013FFF753FC002840F0C380DDE9087881
:104680000022384641460023FFF748FC002840F04E
:10469000C081CDE90A78DDE90A2390461F4614F46B
:1046A000806308BF4FF0060A139304F4006258EACF
:1046B0000703119240F0C080002A00F0A2819FED14
:1046C0005A7B00278DED0E7B4FF00009BA45CCBF19
:1046D000AAEB070A4FF0000A4F46C8BF0AF1FF3A9B
:1046E00044F480644D4594BF4FF00008A5EB0908E1
:1046F00014F00203119304D0B9F1000F18BF4FF06A
:1047000000083FB1DDE90A01DDE90E23FFF73EFBBA
:10471000CDE90A01DDE9080100220023FFF7FEFBD5
:1047200030B1DDE90A01024601F10043CDE90A2377
:104730009DED0A7BCDE902A8DDF834A024F40063E6
:1047400004938DED007B334651465846109A00F095
:1047500097F98046B9F1000F4FD014F0200F0246B0
:1047600000F1010433460CBF652045205146D8476F
:1047700009F1FF3087EAE77C0DF1580900224B462A
:10478000DFF8B080ACEBE77C4FEAD77E01E0202A6F
:1047900010D0E246A8FB0C71C90801EB8107ACEB15
:1047A00047073037BAF1090F8C4602F1010203F8CE
:1047B000017BECD805230590069300200A230D9F6A
:1047C000CDE90330CDE9012E33462246394658461D
:1047D000CDF80090FFF7C6FD119B80466BB1109B92
:1047E000C41AA54209D9424633463946202001342D
:1047F000D847A54208F10108F5D840461FB0BDE8EA
:10480000F08F9DED087B33465846109A0D998DED3B
:10481000287BCDE92B54CDF8A8A01FB0BDE8F04F00
:1048200000F02EB9AFF3008000000000000000008F
:10483000FFFFEF7FCDCCCCCCC7F30A50A0F2FF3006
:10484000FFF700FB8AA3D3E90023FFF779FA8AA3D5
:10485000D3E90023FFF74CFAC7F31307CDE90E01A4
:1048600047F07F51404600227B4B41F44011FFF757
:1048700053FA6BA3D3E90023FFF762FA02460B4613
:10488000DDE90E01FFF734FAFFF700FB0746FFF7FB
:10489000D9FA65A3D3E9002380468946FFF750FA89
:1048A00000226E4BFFF724FAFFF7F0FA0346494661
:1048B000404612935EA3D3E90023FFF741FA8046F6
:1048C00012988946FFF7BEFA5BA3D3E90023FFF7EE
:1048D00037FA02460B4640464946FFF71DFA0246A4
:1048E0000B4680468946FFF72BFA42464B46CDE9F8
:1048F0000E0140464946FFF7FBF90022CDE91401BD
:10490000DDE90E01564BFFF741FA0022554BFFF748
:10491000EFF902460B46DDE90E01FFF737FA0022F8
:10492000514BFFF7E5F902460B46DDE90E01FFF7B3
:104930002DFA42464B468046894600204FF0804182
:10494000FFF7EAF902460B4640464946FFF7D0F921
:1049500002460B46DDE91401FFF718FA0022434B2B
:10496000FFF7C6F9129B002203F2FF3C4FEA0C53FB
:10497000FFF7E6F980468946DDE90A0142464B46E3
:10498000CDE90E89FFF7CAFA68BB4346494607F1ED
:104990006302C62A119A8CBF4FF005094FF0040933
:1049A000002A3FF49FAE0B433FF48EAEDDE90A01CF
:1049B00023A3D3E90023FFF7D9FA48B1DDE90A01BF
:1049C00021A3D3E90023FFF7A9FA00287FF47CAEE6
:1049D000BAF1000F3FF486AE139B002B3FF482AE7A
:1049E0000AF1FF3A7EE600221E4B40464946FFF799
:1049F000CDF90A4601460346CDE90E12013F1146A4
:104A0000C5E79FED137B17464FF004098DED0E7B34
:104A100068E608F100430A970B933CE6AFF3008089
:104A200061436F63A787D23F71A379094F930A400F
:104A30001655B5BBB16B0240EF39FAFE422EE63F88
:104A40002D431CEBE2361A3F0000000080842E410B
:104A500000000000000000000000F83F0000E03F00
:104A600000002C4000002440000018400000F03FEF
:104A7000FB799F501344D33FB3C8608B288AC63F4D
:104A80002DE9F04F97B0DDE92089CDE90401DDE99A
:104A9000224BCDE90623404642464B464946DDF8C7
:104AA00090A0FFF717FA002840F0C581404649461C
:104AB0004FF0FF326FF48013FFF730FA002840F018
:104AC0001D81404649464FF0FF32C14BFFF762FA65
:104AD000002840F0E380B8A3D3E9002340464946CC
:104AE000FFF758FA002840F0CB80B5A3D3E90023A4
:104AF00040464946FFF712FA002840F0C180404680
:104B0000494600220023FFF709FA002840F0E08020
:104B10001AF480650D9000F0E980092C40F296812E
:104B20000EAB1A460C9330210023A4F10905013382
:104B3000202B02F8011BA4EB030600F03A81AB42E4
:104B4000F5D19FED9D7B8DED087B49464046FFF7F3
:104B50009DF90446FFF776F902460B464046494662
:104B6000FFF7DAF8DDE90823FFF7EAF802460B461B
:104B7000CDE90A23FFF79CF90746FFF775F90246CE
:104B80000B46DDE90A01FFF7C7F802460B46CDE9FF
:104B90000A2300228F4BFFF7FDF9002800F0DB808D
:104BA00001373846FFF760F9DDE90823FFF7DEF942
:104BB00008B100270134002E40F0B1802046FFF7F5
:104BC00041F902460B4640464946FFF7A5F8002248
:104BD000804B06460F46FFF7A1F940B930463946EB
:104BE00000227C4BFFF7D6F9002800F015810C9BC2
:104BF000691E7948194410E080FB0462C3EBA203EC
:104C000003EB8302A4EB420404F1300201351C469D
:104C100001F8012F002B00F0AB80202D4FEAE47348
:104C2000EAD10AF00303012B1CD1BBF1000F19D00C
:104C30000D9B002B40F0F9801AF00C0F40F0F5802E
:104C4000AB4540F2D380202D0BD030220C996B1E47
:104C50000B4401355D4503F8012F00F08D80202DB8
:104C6000F7D12025DDE90623DDE904010C9CCDE91F
:104C700002BA01950094FFF727FB17B0BDE8F08F4B
:104C8000CDE92089DDE90623DDE90401CDE923BA78
:104C9000229417B0BDE8F04FFFF7C2BC4F4DCDF8DE
:104CA0008CA00AF0040ABAF1000F4D4C18BF2C4634
:104CB000DDE90623DDE9040120940CBF032404246C
:104CC000CDF888B0219417B0BDE8F04FFFF7FCBADB
:104CD0004B46424600200021FFF71EF801231AF43C
:104CE0008065804689460D937FF417AF9FED367B34
:104CF0000EAB06268DED087B0C9326E70424DDE938
:104D00000623DDE90401374DCDF88CA0CDF888B03D
:104D10002095219417B0BDE8F04FFFF7D5BA0C9B52
:104D2000681EDFF8C4C018440DE0ACFB0721C908B9
:104D300001EB8102A7EB42023032092F00F8012F6C
:104D400027D90F461D46202D05F1010306F1FF3638
:104D5000EBD120254BE70022DDE90A011D4BFFF7CF
:104D6000DDF800287FF427AF002F5AD1013722E762
:104D70000AF00303012B75D0202D3FF473AF0D9B78
:104D8000BBB32D2205F158036B4403F8202C0135E9
:104D900068E7202BDDD0AEB30C9A1E4415443022B8
:104DA00001E0B3422ED00133202B05F8012FF8D1BA
:104DB000CFE71D46C5E600BF0000000065CDCD4130
:104DC0000000000065CDCDC10000000080842E41B0
:104DD000FFFFEF7F0000E03F67666666A4B6011044
:104DE000ACB60110B4B60110CDCCCCCC202D3FF424
:104DF00039AF1AF0040F0DD11AF0080F3FF432AF9B
:104E00002022BFE72E2103F158026A4402F8201C39
:104E10005D1CECE62B22B5E7E3077FF5E8AE013435
:104E2000E5E6FA077FF5C7AEA0E70BF1FF3BAB4520
:104E30003FF609AFA0E70324DDE90623DDE904011D
:104E40000A4DCDF88CA0CDF888B061E7084B264616
:104E500003EBC40393ED007B0EAB8DED087B0025C7
:104E60000C9372E6BBF1000F86D0E1E6B0B60110FC
:104E7000C0BF01102DE9F04F9A469BB0249C964D7F
:104E80000B94964C0B1E18BF834625609AF80000C1
:104E9000934C0A9308BFA3460992002800F0BC82F5
:104EA0004FF000090AE04A46099B0A9909F10109F5
:104EB000D8479AF80000002800F0CE8025280AF193
:104EC000010AF0D10023524612F8010BA0F1200193
:104ED00010290AD8DFE801F04009093C090909094D
:104EE00009090938093409093000A0F130010929FC
:104EF00040F28C802A2800F0F58000210C912E28A9
:104F000000F099800027A0F1680112292DD8DFE870
:104F100011F057012C0051012C0045012C002C00F0
:104F20002C002C002C002C002C0027002C002C0026
:104F30002C002C002C002700924643F00103C2E70E
:104F4000924643F00203BEE7924643F00403BAE7F9
:104F5000924643F01003B6E7924643F00803B2E7E7
:104F60009AF8010043F4807301326728924600F2F8
:104F70008280242840F2C680A0F12502422A00F255
:104F8000C180DFE812F05F01BF00BF00BF00BF00BB
:104F9000BF00BF00BF00BF00BF00BF00BF00BF0019
:104FA000BF00BF00BF00BF00BF00BF00BF00BF0009
:104FB000BF00BF00BF00BF00BF00BF00BF00BF00F9
:104FC000BF00BF00BF00260145012601BF00BF0092
:104FD000BF00BF00BF00BF00BF00BF00BF00BF00D9
:104FE000BF00BF00BF00BF00BF00BF00D301BF00B4
:104FF000BF00BF00BF00BF00BF00BF00BF00BF00B9
:10500000D3016701D301260145012601002100E0FB
:10501000013201EB810100EB410110789246A0F1D1
:105020003004092CA1F13001F2D92E280C9102F1A3
:1050300001027FF467AF9AF801001146A0F1300633
:10504000092E43F4806340F231812A2800F03E812A
:1050500092460027013256E74C46099B994501D3F9
:1050600003F1FF394A460020099B0A99D847204698
:105070001BB0BDE8F08FA0F16902D2B20F2A41D86F
:10508000012649F2410196400E4040F001810A2A72
:105090003FD0072A36D10B9C54F8042B002A00F08D
:1050A000288143F021010DF1480E704603E0202EC7
:1050B00000F029811A4602F00F052B46092D94BFF6
:1050C000303337330F2A00F8013B06F101064FEA6F
:1050D0001213ECD817E100BF754E0010AC4C002045
:1050E000C54200100B9C9AF8010054F8045B9246EC
:1050F000002DBDBF694243F002030C910C950B9447
:105100000132FCE64A46099B0A9909F10109D84790
:10511000CFE60B9951F8048B98F800201046002F29
:1051200040F0E18072B16FF0010C0CF1010C4646C9
:10513000C44401E0664503D016F8014F002CF9D1B4
:10514000A6EB080613F4806C02D0BE4228BF3E4690
:1051500013F0020400F08781002A00F02B81BCF1DB
:10516000000F00F041810B940D964A46DDE9095489
:105170000E464F4408E02B462146D84718F8010F49
:1051800009F1010910B14A464F45F4D131460B9C53
:105190000D9E002C40F00E810B918AE69AF80100DA
:1051A0006C287FF4DFAE9AF8020043F440730AF1F2
:1051B0000302DAE69AF8010043F400730132D4E600
:1051C0009AF80100682800F0208143F08003013242
:1051D000CBE6672800F0E780472800F000814528EB
:1051E00000F0FF800B9C04930C9B0734CDE9027305
:1051F00024F007031C46DDE90931F4E802674A465A
:105200005846CDE900670B94FFF70AFA814650E64D
:1052100046280B9C08BF43F0200304930C9B0734E3
:10522000CDE9027324F007031C46DDE90931F4E8F7
:1052300002674A465846CDE900670B94FFF720FC09
:10524000814636E64A462520099B0A9909F101095B
:10525000D8472EE60B9A9C0702F1040709F10106D4
:1052600040F1E6801078099B4A460A99D8470C9B82
:10527000012B40F22C81DDE90954994432462B463A
:10528000214620200136D8474E45F7D10B9710E62E
:105290006F2800F08B8040F26581782800F008814B
:1052A0004FF00A0823F01003C44647E0002707EB3D
:1052B000870700EB4700A0F1300711F8010FA0F1BC
:1052C0003002092AF3D98A464A1C1CE60B9C9AF83C
:1052D000020054F8047B0AF1020A0AF101020B945D
:1052E00027EAE7770FE6002A3FF42CAF07F1FF3CEF
:1052F0001BE723F0100113F4806241F021013FF419
:10530000D2AE0DF1480E08231020059300234A4623
:10531000CDE9023006915846DDE90931CDE900E6D4
:105320000497FFF71FF80B948146C2E5582879D0FF
:10533000622840F051824FF00208C44613F48060A6
:105340006DD123F00C0313F4007240F0C2800B996E
:1053500004310D9113F4807140F02E825E060B9A99
:1053600040F1AA801278002A40F0DA8023F010037E
:10537000002800F0D58011460DF1480E06930C9BD5
:10538000CDF80CC0CDE90473019100234A46029385
:105390005846DDE90931CDF800E0FEF7E3FF0D9B4B
:1053A00081460B9385E543F400631BE74FF0080843
:1053B000C446C3E70C9B4C46B3427FF6EDAE0F46A6
:1053C0004B44A3EB0609DDE909652246334629462D
:1053D00020200134D8474C45F7D13946DCE643F468
:1053E000006343F02003FDE60F460B94DDE909540A
:1053F0004A462B462146D84718F8010F09F1010902
:105400000028F5D139460B9CC3E69AF8020043F018
:10541000C0030AF10302A8E5044681461DE623F015
:105420000D0390E74FF0100843F02003C44685E7D2
:105430000C9B012B45D9DDE909544E4609F1FF3893
:10544000984432462B46214620200136D84746450F
:10545000F7D10C9B324699440B9B1878DDE9093152
:10546000D8470B9725E50C9BB34240F2EE81CDE97E
:105470000D48DDE9095488464B449E1BCDF82CC0ED
:105480004A462B462146202009F10109D847B1455B
:10549000F6D14146DDF838800C9BDDF82CC00D9C20
:1054A00098F800205E1C1046002A7FF458AE73E680
:1054B0004FF01008C44641E71D064CBF1288126821
:1054C00051E713464A461878DDE90931D847B14615
:1054D000DCE60B9C073424F007042246656852F88A
:1054E000084B0B9254EA050240F02C8123F0100384
:1054F000002800F0278100260DF1480E06930C9B32
:105500004A46CDE904730023CDE900E6CDF80CC08E
:1055100002935846DDE90931FEF724FF8146C8E4CD
:1055200013F0200F14BF412061200DF1480E764684
:10553000A0F10A0803E020293FF420AF2246B2FB85
:10554000FCF40CFB1425E8B2092D00F130058ABFEC
:105550004044E8B2C0B2624506F8010B01F1010116
:10556000E9D20BE723F0100269280D9240F06F8119
:1055700013F4806204D04FF4806223F011030D9382
:105580000D9B13F4007640D10B9B03F104080D9B97
:1055900013F4807040F09880590640F1C6800B9B50
:1055A00019780C46CB0F002900F0B98022460DF186
:1055B000480E74461646DFF8A0C201E020280FD03E
:1055C0003546ACFB0621C90801EB8102A6EB42027D
:1055D0003032092D0E4600F1010004F8012BEDD800
:1055E0000D9ACDE9010306920C9ACDE904720A23C3
:1055F0004A4603935846DDE90931CDF800E0FEF74D
:10560000B1FECDF82C80814653E40B9C073424F086
:10561000070421460846636850F8081BDC0F0B900E
:1056200051EA030000F0C3800A46191E48DB134606
:105630000DF1480EF4460026CDE90E94DFF81882ED
:1056400001E0202E2DD05A1842F10002A8FB025989
:1056500029F0030505EB9905521B1C469B1A61F1C5
:10566000000508464FF0CC3101FB03F108FB0511A2
:10567000A3FB08531944052305F00109A9FB0339CD
:105680009B180A2C03F130034FEA550570F1000016
:105690000CF8013B06F1010645EAC1734FEA5101DE
:1056A000CFD2DDE90E940D9B4A4606930C9BCDE9C3
:1056B0000164CDE904730A23CDF800E0039328E7E1
:1056C000524261EB4101B2E70B9B1968CB0F0029F5
:1056D00000F0AB8081EAE172A2EBE1720DF1480EBD
:1056E0007046DFF874C101E0202E10D01546ACFBE7
:1056F0000241C90801EB8104A2EB440404F1300229
:10570000092D00F8012B06F101060A46ECD80D9A86
:10571000CDE9016306920C9ACDE9047267E7002A8D
:105720003FF445AF0DF1480E5AE713F0800F0B9B85
:1057300000F08180B3F9001081EAE174A4EBE17418
:10574000A4B22FE713F0200F14BF412261220DF104
:10575000480E0A3ACDE90D97CDF844B000267746B9
:10576000F3469146CDE90F3C03E0202E17D00446C6
:105770000D46294642460023204615F051FAD2B282
:10578000092A02F1300388BF02EB09034445DBB26A
:1057900075F1000507F8013B06F10106E5D2DE468A
:1057A000DDE90D97DDE90F3CDDF844B0A6E6002AFF
:1057B00047D1134611463BE70B990968A1B923F07D
:1057C000100388B10DF1480E06930C9BCDF80CC068
:1057D000CDE904730192D8E513F480627FF4CBAE77
:1057E00023F010030D93CBE613F0200F14BF4120DC
:1057F00061200DF1480E7646A0F10A0802E0202A49
:10580000E2D02146B1FBFCF40CFB1415E8B2092DE3
:1058100000F130058ABF4044E8B2C0B2614506F8E5
:10582000010B02F10102EAD2CEE7002A3FF456AFA3
:105830000DF1480E6BE7196881EAE174A4EBE1749D
:10584000B0E600260DF1480E2DE701362BE64FF0AD
:105850000A081346C44671E5CDCCCCCC84460CB4C2
:1058600010B584B006AC54F8043B0A460094614677
:1058700004480394FFF7FEFA04B0BDE8104002B0FC
:10588000704700BFBD42001030B594468E460546B5
:105890001C4683B029467246634600940248FFF7CF
:1058A000E9FA03B030BD00BFBD42001070B59446A8
:1058B0001E4605460C4684B04FF0FF32634602A9EF
:1058C00000960348CDE90254FFF7D4FA04B070BD46
:1058D000114600100FB410B50E4B84B006A91C6819
:1058E00051F8043B03915CB100914FF0FF3202A9E3
:1058F0000948A047012004B0BDE8104004B070473B
:10590000184600F033FA204604B0BDE8104004B059
:10591000704700BFAC4C00200946001010B5094B81
:1059200084B01C684CB1034600914FF0FF3203A9CC
:105930000548A047012004B010BD00F017FA20462A
:1059400004B010BDAC4C00200946001000BEFDE7BD
:10595000074A0346106838B1064903448B428CBF9E
:105960004FF0FF3013607047034908461160F3E7BA
:1059700094480020000008203C4F00200020704781
:105980004FF0FF30704700BF03460846114623B969
:10599000034BD3E9002300F04FB94FF0FF307047BD
:1059A00060BF0110431E012B09D810B514460846EC
:1059B00001230022214600F0C7F8204610BD4FF019
:1059C000FF3070474FF0FF30704700BF4FF0FF309F
:1059D000704700BF08B5FFF7B9FF00BF9C461446EB
:1059E00000B50B460246614683B044B1054D0648FA
:1059F00001940095FFF76EFF0120FFF7A7FF034D0D
:105A00002C46F4E7BCB60110CCB601105CAD011019
:105A100038B5064C064DFEF74FF8AC4204D254F8A8
:105A2000043B9847AC42FAD338BD00BFF0AC01103C
:105A300008AD01100368084611461847437D2DE95B
:105A4000F04781460F461646002B43D0002A3BDD27
:105A5000037D00204D1E014615F8012FDFF88480DC
:105A60000A2A01F101040ED0A6421CD02B7821464F
:105A7000A3F10D03B3FA83F315F8012F5B090A2A8A
:105A800001F10104F0D1002BEED18142A1EB000124
:105A900038441BDC02214046D9F800309847A64222
:105AA00008D02046E2E7864204DD311AD9F80030FA
:105AB00038449847374417F8013CA3F10D03B3FA73
:105AC00083F35B0989F81430BDE8F087D9F800301A
:105AD0009847DFE73846D9F800301146BDE8F0476F
